{
  "contractName": "LotteryTicket",
  "abi": [
    {
      "inputs": [
        {
          "internalType": "address",
          "name": "_vrfCoordinator",
          "type": "address"
        },
        {
          "internalType": "address",
          "name": "_linkToken",
          "type": "address"
        },
        {
          "internalType": "address",
          "name": "_resolver",
          "type": "address"
        },
        {
          "internalType": "bytes32",
          "name": "_keyHash",
          "type": "bytes32"
        }
      ],
      "stateMutability": "payable",
      "type": "constructor",
      "payable": true
    },
    {
      "anonymous": false,
      "inputs": [
        {
          "indexed": true,
          "internalType": "address",
          "name": "owner",
          "type": "address"
        },
        {
          "indexed": true,
          "internalType": "address",
          "name": "approved",
          "type": "address"
        },
        {
          "indexed": true,
          "internalType": "uint256",
          "name": "tokenId",
          "type": "uint256"
        }
      ],
      "name": "Approval",
      "type": "event"
    },
    {
      "anonymous": false,
      "inputs": [
        {
          "indexed": true,
          "internalType": "address",
          "name": "owner",
          "type": "address"
        },
        {
          "indexed": true,
          "internalType": "address",
          "name": "operator",
          "type": "address"
        },
        {
          "indexed": false,
          "internalType": "bool",
          "name": "approved",
          "type": "bool"
        }
      ],
      "name": "ApprovalForAll",
      "type": "event"
    },
    {
      "anonymous": false,
      "inputs": [
        {
          "indexed": false,
          "internalType": "uint256",
          "name": "ticketFloor",
          "type": "uint256"
        },
        {
          "indexed": false,
          "internalType": "bytes32",
          "name": "requestId",
          "type": "bytes32"
        }
      ],
      "name": "LotteryEnded",
      "type": "event"
    },
    {
      "anonymous": false,
      "inputs": [
        {
          "indexed": true,
          "internalType": "address",
          "name": "previousOwner",
          "type": "address"
        },
        {
          "indexed": true,
          "internalType": "address",
          "name": "newOwner",
          "type": "address"
        }
      ],
      "name": "OwnershipTransferred",
      "type": "event"
    },
    {
      "anonymous": false,
      "inputs": [
        {
          "indexed": true,
          "internalType": "uint256",
          "name": "ticketId",
          "type": "uint256"
        },
        {
          "indexed": true,
          "internalType": "uint256",
          "name": "prize",
          "type": "uint256"
        }
      ],
      "name": "PrizePaid",
      "type": "event"
    },
    {
      "anonymous": false,
      "inputs": [
        {
          "indexed": true,
          "internalType": "uint256",
          "name": "ticketId",
          "type": "uint256"
        }
      ],
      "name": "TicketBurned",
      "type": "event"
    },
    {
      "anonymous": false,
      "inputs": [
        {
          "indexed": true,
          "internalType": "address",
          "name": "from",
          "type": "address"
        },
        {
          "indexed": true,
          "internalType": "address",
          "name": "to",
          "type": "address"
        },
        {
          "indexed": true,
          "internalType": "uint256",
          "name": "tokenId",
          "type": "uint256"
        }
      ],
      "name": "Transfer",
      "type": "event"
    },
    {
      "inputs": [
        {
          "internalType": "address",
          "name": "to",
          "type": "address"
        },
        {
          "internalType": "uint256",
          "name": "tokenId",
          "type": "uint256"
        }
      ],
      "name": "approve",
      "outputs": [],
      "stateMutability": "nonpayable",
      "type": "function"
    },
    {
      "inputs": [
        {
          "internalType": "address",
          "name": "owner",
          "type": "address"
        }
      ],
      "name": "balanceOf",
      "outputs": [
        {
          "internalType": "uint256",
          "name": "",
          "type": "uint256"
        }
      ],
      "stateMutability": "view",
      "type": "function",
      "constant": true
    },
    {
      "inputs": [
        {
          "internalType": "uint256",
          "name": "tokenId",
          "type": "uint256"
        }
      ],
      "name": "burn",
      "outputs": [],
      "stateMutability": "nonpayable",
      "type": "function"
    },
    {
      "inputs": [],
      "name": "duration",
      "outputs": [
        {
          "internalType": "uint256",
          "name": "",
          "type": "uint256"
        }
      ],
      "stateMutability": "view",
      "type": "function",
      "constant": true
    },
    {
      "inputs": [],
      "name": "end",
      "outputs": [
        {
          "internalType": "uint256",
          "name": "",
          "type": "uint256"
        }
      ],
      "stateMutability": "view",
      "type": "function",
      "constant": true
    },
    {
      "inputs": [],
      "name": "feesCollected",
      "outputs": [
        {
          "internalType": "uint256",
          "name": "",
          "type": "uint256"
        }
      ],
      "stateMutability": "view",
      "type": "function",
      "constant": true
    },
    {
      "inputs": [
        {
          "internalType": "uint256",
          "name": "tokenId",
          "type": "uint256"
        }
      ],
      "name": "getApproved",
      "outputs": [
        {
          "internalType": "address",
          "name": "",
          "type": "address"
        }
      ],
      "stateMutability": "view",
      "type": "function",
      "constant": true
    },
    {
      "inputs": [
        {
          "internalType": "address",
          "name": "owner",
          "type": "address"
        },
        {
          "internalType": "address",
          "name": "operator",
          "type": "address"
        }
      ],
      "name": "isApprovedForAll",
      "outputs": [
        {
          "internalType": "bool",
          "name": "",
          "type": "bool"
        }
      ],
      "stateMutability": "view",
      "type": "function",
      "constant": true
    },
    {
      "inputs": [],
      "name": "lotteryFee",
      "outputs": [
        {
          "internalType": "uint256",
          "name": "",
          "type": "uint256"
        }
      ],
      "stateMutability": "view",
      "type": "function",
      "constant": true
    },
    {
      "inputs": [],
      "name": "name",
      "outputs": [
        {
          "internalType": "string",
          "name": "",
          "type": "string"
        }
      ],
      "stateMutability": "view",
      "type": "function",
      "constant": true
    },
    {
      "inputs": [],
      "name": "owner",
      "outputs": [
        {
          "internalType": "address",
          "name": "",
          "type": "address"
        }
      ],
      "stateMutability": "view",
      "type": "function",
      "constant": true
    },
    {
      "inputs": [
        {
          "internalType": "uint256",
          "name": "tokenId",
          "type": "uint256"
        }
      ],
      "name": "ownerOf",
      "outputs": [
        {
          "internalType": "address",
          "name": "",
          "type": "address"
        }
      ],
      "stateMutability": "view",
      "type": "function",
      "constant": true
    },
    {
      "inputs": [],
      "name": "prevTicketFloor",
      "outputs": [
        {
          "internalType": "uint256",
          "name": "",
          "type": "uint256"
        }
      ],
      "stateMutability": "view",
      "type": "function",
      "constant": true
    },
    {
      "inputs": [
        {
          "internalType": "bytes32",
          "name": "requestId",
          "type": "bytes32"
        },
        {
          "internalType": "uint256",
          "name": "randomness",
          "type": "uint256"
        }
      ],
      "name": "rawFulfillRandomness",
      "outputs": [],
      "stateMutability": "nonpayable",
      "type": "function"
    },
    {
      "inputs": [],
      "name": "renounceOwnership",
      "outputs": [],
      "stateMutability": "nonpayable",
      "type": "function"
    },
    {
      "inputs": [
        {
          "internalType": "address",
          "name": "from",
          "type": "address"
        },
        {
          "internalType": "address",
          "name": "to",
          "type": "address"
        },
        {
          "internalType": "uint256",
          "name": "tokenId",
          "type": "uint256"
        }
      ],
      "name": "safeTransferFrom",
      "outputs": [],
      "stateMutability": "nonpayable",
      "type": "function"
    },
    {
      "inputs": [
        {
          "internalType": "address",
          "name": "from",
          "type": "address"
        },
        {
          "internalType": "address",
          "name": "to",
          "type": "address"
        },
        {
          "internalType": "uint256",
          "name": "tokenId",
          "type": "uint256"
        },
        {
          "internalType": "bytes",
          "name": "_data",
          "type": "bytes"
        }
      ],
      "name": "safeTransferFrom",
      "outputs": [],
      "stateMutability": "nonpayable",
      "type": "function"
    },
    {
      "inputs": [
        {
          "internalType": "address",
          "name": "operator",
          "type": "address"
        },
        {
          "internalType": "bool",
          "name": "approved",
          "type": "bool"
        }
      ],
      "name": "setApprovalForAll",
      "outputs": [],
      "stateMutability": "nonpayable",
      "type": "function"
    },
    {
      "inputs": [
        {
          "internalType": "bytes4",
          "name": "interfaceId",
          "type": "bytes4"
        }
      ],
      "name": "supportsInterface",
      "outputs": [
        {
          "internalType": "bool",
          "name": "",
          "type": "bool"
        }
      ],
      "stateMutability": "view",
      "type": "function",
      "constant": true
    },
    {
      "inputs": [],
      "name": "symbol",
      "outputs": [
        {
          "internalType": "string",
          "name": "",
          "type": "string"
        }
      ],
      "stateMutability": "view",
      "type": "function",
      "constant": true
    },
    {
      "inputs": [],
      "name": "synthetixResolver",
      "outputs": [
        {
          "internalType": "contract IAddressResolver",
          "name": "",
          "type": "address"
        }
      ],
      "stateMutability": "view",
      "type": "function",
      "constant": true
    },
    {
      "inputs": [],
      "name": "ticketFloor",
      "outputs": [
        {
          "internalType": "uint256",
          "name": "",
          "type": "uint256"
        }
      ],
      "stateMutability": "view",
      "type": "function",
      "constant": true
    },
    {
      "inputs": [],
      "name": "ticketId",
      "outputs": [
        {
          "internalType": "uint256",
          "name": "",
          "type": "uint256"
        }
      ],
      "stateMutability": "view",
      "type": "function",
      "constant": true
    },
    {
      "inputs": [],
      "name": "ticketPrice",
      "outputs": [
        {
          "internalType": "uint256",
          "name": "",
          "type": "uint256"
        }
      ],
      "stateMutability": "view",
      "type": "function",
      "constant": true
    },
    {
      "inputs": [
        {
          "internalType": "uint256",
          "name": "",
          "type": "uint256"
        }
      ],
      "name": "ticketToPrize",
      "outputs": [
        {
          "internalType": "uint256",
          "name": "",
          "type": "uint256"
        }
      ],
      "stateMutability": "view",
      "type": "function",
      "constant": true
    },
    {
      "inputs": [
        {
          "internalType": "uint256",
          "name": "tokenId",
          "type": "uint256"
        }
      ],
      "name": "tokenURI",
      "outputs": [
        {
          "internalType": "string",
          "name": "",
          "type": "string"
        }
      ],
      "stateMutability": "view",
      "type": "function",
      "constant": true
    },
    {
      "inputs": [
        {
          "internalType": "address",
          "name": "from",
          "type": "address"
        },
        {
          "internalType": "address",
          "name": "to",
          "type": "address"
        },
        {
          "internalType": "uint256",
          "name": "tokenId",
          "type": "uint256"
        }
      ],
      "name": "transferFrom",
      "outputs": [],
      "stateMutability": "nonpayable",
      "type": "function"
    },
    {
      "inputs": [
        {
          "internalType": "address",
          "name": "newOwner",
          "type": "address"
        }
      ],
      "name": "transferOwnership",
      "outputs": [],
      "stateMutability": "nonpayable",
      "type": "function"
    },
    {
      "inputs": [
        {
          "internalType": "uint256",
          "name": "qty",
          "type": "uint256"
        }
      ],
      "name": "buyTickets",
      "outputs": [],
      "stateMutability": "payable",
      "type": "function",
      "payable": true
    },
    {
      "inputs": [],
      "name": "endLottery",
      "outputs": [],
      "stateMutability": "nonpayable",
      "type": "function"
    },
    {
      "inputs": [],
      "name": "claimMyPrizes",
      "outputs": [],
      "stateMutability": "nonpayable",
      "type": "function"
    },
    {
      "inputs": [],
      "name": "getMyTickets",
      "outputs": [
        {
          "internalType": "uint256[]",
          "name": "",
          "type": "uint256[]"
        }
      ],
      "stateMutability": "view",
      "type": "function",
      "constant": true
    },
    {
      "inputs": [],
      "name": "burnExpired",
      "outputs": [],
      "stateMutability": "nonpayable",
      "type": "function"
    },
    {
      "inputs": [],
      "name": "withdrawMoney",
      "outputs": [],
      "stateMutability": "nonpayable",
      "type": "function"
    },
    {
      "inputs": [
        {
          "internalType": "address",
          "name": "account",
          "type": "address"
        }
      ],
      "name": "checkTokenBalance",
      "outputs": [
        {
          "internalType": "uint256",
          "name": "",
          "type": "uint256"
        }
      ],
      "stateMutability": "view",
      "type": "function",
      "constant": true
    },
    {
      "inputs": [
        {
          "internalType": "address",
          "name": "tokenOwner",
          "type": "address"
        },
        {
          "internalType": "address",
          "name": "spender",
          "type": "address"
        }
      ],
      "name": "checkTokenAllowance",
      "outputs": [
        {
          "internalType": "uint256",
          "name": "",
          "type": "uint256"
        }
      ],
      "stateMutability": "view",
      "type": "function",
      "constant": true
    }
  ],
  "bytecode": "0x60c0604052604051620056ce380380620056ce8339818101604052810190620000299190620004f9565b83836040518060400160405280600d81526020017f4c6f74746572795469636b6574000000000000000000000000000000000000008152506040518060400160405280600381526020017f54495800000000000000000000000000000000000000000000000000000000008152508160009080519060200190620000af929190620003ef565b508060019080519060200190620000c8929190620003ef565b5050508173ffffffffffffffffffffffffffffffffffffffff1660a08173ffffffffffffffffffffffffffffffffffffffff1660601b815250508073ffffffffffffffffffffffffffffffffffffffff1660808173ffffffffffffffffffffffffffffffffffffffff1660601b81525050505060006200014d620003e760201b60201c565b905080600760006101000a81548173ffffffffffffffffffffffffffffffffffffffff021916908373ffffffffffffffffffffffffffffffffffffffff1602179055508073ffffffffffffffffffffffffffffffffffffffff16600073ffffffffffffffffffffffffffffffffffffffff167f8be0079c531659141344cd1fd0a4f28419497f9722a3daafe3b4186f6b6457e060405160405180910390a35081600f60006101000a81548173ffffffffffffffffffffffffffffffffffffffff021916908373ffffffffffffffffffffffffffffffffffffffff160217905550600f60009054906101000a900473ffffffffffffffffffffffffffffffffffffffff1673ffffffffffffffffffffffffffffffffffffffff166321f8a7216040518163ffffffff1660e01b81526004016200028890620005b2565b60206040518083038186803b158015620002a157600080fd5b505afa158015620002b6573d6000803e3d6000fd5b505050506040513d601f19601f82011682018060405250810190620002dc9190620004cd565b601060006101000a81548173ffffffffffffffffffffffffffffffffffffffff021916908373ffffffffffffffffffffffffffffffffffffffff160217905550600073ffffffffffffffffffffffffffffffffffffffff16601060009054906101000a900473ffffffffffffffffffffffffffffffffffffffff1673ffffffffffffffffffffffffffffffffffffffff161415620003b1576040517f08c379a0000000000000000000000000000000000000000000000000000000008152600401620003a890620005cd565b60405180910390fd5b80600d8190555067016345785d8a0000600e8190555061025842620003d7919062000600565b600b8190555050505050620007bc565b600033905090565b828054620003fd90620006a5565b90600052602060002090601f0160209004810192826200042157600085556200046d565b82601f106200043c57805160ff19168380011785556200046d565b828001600101855582156200046d579182015b828111156200046c5782518255916020019190600101906200044f565b5b5090506200047c919062000480565b5090565b5b808211156200049b57600081600090555060010162000481565b5090565b600081519050620004b08162000788565b92915050565b600081519050620004c781620007a2565b92915050565b600060208284031215620004e057600080fd5b6000620004f0848285016200049f565b91505092915050565b600080600080608085870312156200051057600080fd5b600062000520878288016200049f565b945050602062000533878288016200049f565b935050604062000546878288016200049f565b92505060606200055987828801620004b6565b91505092959194509250565b7f50726f7879455243323073555344000000000000000000000000000000000000815250565b60006200059a602783620005ef565b9150620005a78262000739565b604082019050919050565b6000602082019050620005c86000830162000565565b919050565b60006020820190508181036000830152620005e8816200058b565b9050919050565b600082825260208201905092915050565b60006200060d826200069b565b91506200061a836200069b565b9250827fffffffffffffffffffffffffffffffffffffffffffffffffffffffffffffffff03821115620006525762000651620006db565b5b828201905092915050565b60006200066a826200067b565b9050919050565b6000819050919050565b600073ffffffffffffffffffffffffffffffffffffffff82169050919050565b6000819050919050565b60006002820490506001821680620006be57607f821691505b60208210811415620006d557620006d46200070a565b5b50919050565b7f4e487b7100000000000000000000000000000000000000000000000000000000600052601160045260246000fd5b7f4e487b7100000000000000000000000000000000000000000000000000000000600052602260045260246000fd5b7f73555344206973206d697373696e672066726f6d2053796e746865746978207260008201527f65736f6c76657200000000000000000000000000000000000000000000000000602082015250565b62000793816200065d565b81146200079f57600080fd5b50565b620007ad8162000671565b8114620007b957600080fd5b50565b60805160601c60a05160601c614ed8620007f6600039600081816114ab015261291501526000818161213a01526128d90152614ed86000f3fe60806040526004361061020f5760003560e01c806378aa08ed11610118578063c557af8b116100a0578063e985e9c51161006f578063e985e9c514610758578063efbe1c1c14610795578063f071db5a146107c0578063f2fde38b146107eb578063f9f0164a146108145761020f565b8063c557af8b1461069c578063c87b56dd146106b3578063da83c8f3146106f0578063e1d10d851461072d5761020f565b80639bc7b4c4116100e75780639bc7b4c4146105dd578063a22cb46514610608578063a636179b14610631578063ac4460021461065c578063b88d4fde146106735761020f565b806378aa08ed146105335780638da5cb5b1461055e57806394985ddd1461058957806395d89b41146105b25761020f565b806319777d1a1161019b57806342966c681161016a57806342966c681461043c578063533d172c146104655780636352211e146104a257806370a08231146104df578063715018a61461051c5761020f565b806319777d1a146103b757806323b872dd146103ce5780632f366637146103f757806342842e0e146104135761020f565b80630fb5a6b4116101e25780630fb5a6b4146102e25780631209b1f61461030d578063126cbe6014610338578063153cd716146103755780631593a8c7146103a05761020f565b806301ffc9a71461021457806306fdde0314610251578063081812fc1461027c578063095ea7b3146102b9575b600080fd5b34801561022057600080fd5b5061023b60048036038101906102369190613850565b61083f565b6040516102489190613f5a565b60405180910390f35b34801561025d57600080fd5b50610266610921565b6040516102739190613ffe565b60405180910390f35b34801561028857600080fd5b506102a3600480360381019061029e91906138a2565b6109b3565b6040516102b09190613e0a565b60405180910390f35b3480156102c557600080fd5b506102e060048036038101906102db91906137af565b610a38565b005b3480156102ee57600080fd5b506102f7610b50565b6040516103049190614300565b60405180910390f35b34801561031957600080fd5b50610322610b56565b60405161032f9190614300565b60405180910390f35b34801561034457600080fd5b5061035f600480360381019061035a9190613644565b610b62565b60405161036c9190614300565b60405180910390f35b34801561038157600080fd5b5061038a610c16565b6040516103979190613fe3565b60405180910390f35b3480156103ac57600080fd5b506103b5610c3c565b005b3480156103c357600080fd5b506103cc610cf1565b005b3480156103da57600080fd5b506103f560048036038101906103f091906136a9565b610dd5565b005b610411600480360381019061040c91906138a2565b610e35565b005b34801561041f57600080fd5b5061043a600480360381019061043591906136a9565b6110a0565b005b34801561044857600080fd5b50610463600480360381019061045e91906138a2565b6110c0565b005b34801561047157600080fd5b5061048c6004803603810190610487919061366d565b61111c565b6040516104999190614300565b60405180910390f35b3480156104ae57600080fd5b506104c960048036038101906104c491906138a2565b6111d3565b6040516104d69190613e0a565b60405180910390f35b3480156104eb57600080fd5b5061050660048036038101906105019190613644565b611285565b6040516105139190614300565b60405180910390f35b34801561052857600080fd5b5061053161133d565b005b34801561053f57600080fd5b5061054861147a565b6040516105559190614300565b60405180910390f35b34801561056a57600080fd5b5061057361147f565b6040516105809190613e0a565b60405180910390f35b34801561059557600080fd5b506105b060048036038101906105ab9190613814565b6114a9565b005b3480156105be57600080fd5b506105c7611545565b6040516105d49190613ffe565b60405180910390f35b3480156105e957600080fd5b506105f26115d7565b6040516105ff9190614300565b60405180910390f35b34801561061457600080fd5b5061062f600480360381019061062a9190613773565b6115dd565b005b34801561063d57600080fd5b5061064661175e565b6040516106539190614300565b60405180910390f35b34801561066857600080fd5b50610671611764565b005b34801561067f57600080fd5b5061069a600480360381019061069591906136f8565b61189c565b005b3480156106a857600080fd5b506106b16118fe565b005b3480156106bf57600080fd5b506106da60048036038101906106d591906138a2565b611ab1565b6040516106e79190613ffe565b60405180910390f35b3480156106fc57600080fd5b50610717600480360381019061071291906138a2565b611b58565b6040516107249190614300565b60405180910390f35b34801561073957600080fd5b50610742611b70565b60405161074f9190613f38565b60405180910390f35b34801561076457600080fd5b5061077f600480360381019061077a919061366d565b611d4a565b60405161078c9190613f5a565b60405180910390f35b3480156107a157600080fd5b506107aa611dde565b6040516107b79190614300565b60405180910390f35b3480156107cc57600080fd5b506107d5611de4565b6040516107e29190614300565b60405180910390f35b3480156107f757600080fd5b50610812600480360381019061080d9190613644565b611dea565b005b34801561082057600080fd5b50610829611f96565b6040516108369190614300565b60405180910390f35b60007f80ac58cd000000000000000000000000000000000000000000000000000000007bffffffffffffffffffffffffffffffffffffffffffffffffffffffff1916827bffffffffffffffffffffffffffffffffffffffffffffffffffffffff1916148061090a57507f5b5e139f000000000000000000000000000000000000000000000000000000007bffffffffffffffffffffffffffffffffffffffffffffffffffffffff1916827bffffffffffffffffffffffffffffffffffffffffffffffffffffffff1916145b8061091a575061091982611f9c565b5b9050919050565b60606000805461093090614662565b80601f016020809104026020016040519081016040528092919081815260200182805461095c90614662565b80156109a95780601f1061097e576101008083540402835291602001916109a9565b820191906000526020600020905b81548152906001019060200180831161098c57829003601f168201915b5050505050905090565b60006109be82612006565b6109fd576040517f08c379a00000000000000000000000000000000000000000000000000000000081526004016109f4906141e0565b60405180910390fd5b6004600083815260200190815260200160002060009054906101000a900473ffffffffffffffffffffffffffffffffffffffff169050919050565b6000610a43826111d3565b90508073ffffffffffffffffffffffffffffffffffffffff168373ffffffffffffffffffffffffffffffffffffffff161415610ab4576040517f08c379a0000000000000000000000000000000000000000000000000000000008152600401610aab90614280565b60405180910390fd5b8073ffffffffffffffffffffffffffffffffffffffff16610ad3612072565b73ffffffffffffffffffffffffffffffffffffffff161480610b025750610b0181610afc612072565b611d4a565b5b610b41576040517f08c379a0000000000000000000000000000000000000000000000000000000008152600401610b3890614140565b60405180910390fd5b610b4b838361207a565b505050565b61025881565b674563918244f4000081565b6000601060009054906101000a900473ffffffffffffffffffffffffffffffffffffffff1673ffffffffffffffffffffffffffffffffffffffff166370a08231836040518263ffffffff1660e01b8152600401610bbf9190613e0a565b60206040518083038186803b158015610bd757600080fd5b505afa158015610beb573d6000803e3d6000fd5b505050506040513d601f19601f82011682018060405250810190610c0f91906138cb565b9050919050565b600f60009054906101000a900473ffffffffffffffffffffffffffffffffffffffff1681565b42600b5410610c80576040517f08c379a0000000000000000000000000000000000000000000000000000000008152600401610c77906141a0565b60405180910390fd5b600954600a8190555061025842610c97919061443f565b600b819055506008546009819055506000610cb142612133565b90507f199997e69d26ca150e8779dcb3a0e21b8e257b4fdb13aa25764d3f7efabd67bf600a5482604051610ce692919061431b565b60405180910390a150565b6000610cfb611b70565b9050600081511115610dd257600080600091505b8251821015610dcf57828281518110610d51577f4e487b7100000000000000000000000000000000000000000000000000000000600052603260045260246000fd5b602002602001015190506009548111158015610d80575060006011600083815260200190815260200160002054145b15610dbc57610d8e81612238565b807fd6acdc6c4f4076335309cf5eeb3b91b03b26861765e0726fce70f4617de8c7c660405160405180910390a25b8180610dc7906146c5565b925050610d0f565b50505b50565b610de6610de0612072565b82612349565b610e25576040517f08c379a0000000000000000000000000000000000000000000000000000000008152600401610e1c906142a0565b60405180910390fd5b610e30838383612427565b505050565b42600b541015610e4857610e47610c3c565b5b600081674563918244f40000610e5e91906144c6565b905080610e6a33610b62565b1015610eab576040517f08c379a0000000000000000000000000000000000000000000000000000000008152600401610ea290614120565b60405180910390fd5b601060009054906101000a900473ffffffffffffffffffffffffffffffffffffffff1673ffffffffffffffffffffffffffffffffffffffff1663095ea7b330836040518363ffffffff1660e01b8152600401610f08929190613ed1565b602060405180830381600087803b158015610f2257600080fd5b505af1158015610f36573d6000803e3d6000fd5b505050506040513d601f19601f82011682018060405250810190610f5a91906137eb565b5080610f66333061111c565b1015610fa7576040517f08c379a0000000000000000000000000000000000000000000000000000000008152600401610f9e906142e0565b60405180910390fd5b601060009054906101000a900473ffffffffffffffffffffffffffffffffffffffff1673ffffffffffffffffffffffffffffffffffffffff166323b872dd3330846040518463ffffffff1660e01b815260040161100693929190613e4e565b602060405180830381600087803b15801561102057600080fd5b505af1158015611034573d6000803e3d6000fd5b505050506040513d601f19601f8201168201806040525081019061105891906137eb565b5060005b8281101561109b5760086000815480929190611077906146c5565b919050555061108833600854612683565b8080611093906146c5565b91505061105c565b505050565b6110bb8383836040518060200160405280600081525061189c565b505050565b6110d16110cb612072565b82612349565b611110576040517f08c379a0000000000000000000000000000000000000000000000000000000008152600401611107906142c0565b60405180910390fd5b61111981612238565b50565b6000601060009054906101000a900473ffffffffffffffffffffffffffffffffffffffff1673ffffffffffffffffffffffffffffffffffffffff1663dd62ed3e84846040518363ffffffff1660e01b815260040161117b929190613e25565b60206040518083038186803b15801561119357600080fd5b505afa1580156111a7573d6000803e3d6000fd5b505050506040513d601f19601f820116820180604052508101906111cb91906138cb565b905092915050565b6000806002600084815260200190815260200160002060009054906101000a900473ffffffffffffffffffffffffffffffffffffffff169050600073ffffffffffffffffffffffffffffffffffffffff168173ffffffffffffffffffffffffffffffffffffffff16141561127c576040517f08c379a000000000000000000000000000000000000000000000000000000000815260040161127390614180565b60405180910390fd5b80915050919050565b60008073ffffffffffffffffffffffffffffffffffffffff168273ffffffffffffffffffffffffffffffffffffffff1614156112f6576040517f08c379a00000000000000000000000000000000000000000000000000000000081526004016112ed90614160565b60405180910390fd5b600360008373ffffffffffffffffffffffffffffffffffffffff1673ffffffffffffffffffffffffffffffffffffffff168152602001908152602001600020549050919050565b611345612072565b73ffffffffffffffffffffffffffffffffffffffff1661136361147f565b73ffffffffffffffffffffffffffffffffffffffff16146113b9576040517f08c379a00000000000000000000000000000000000000000000000000000000081526004016113b090614200565b60405180910390fd5b600073ffffffffffffffffffffffffffffffffffffffff16600760009054906101000a900473ffffffffffffffffffffffffffffffffffffffff1673ffffffffffffffffffffffffffffffffffffffff167f8be0079c531659141344cd1fd0a4f28419497f9722a3daafe3b4186f6b6457e060405160405180910390a36000600760006101000a81548173ffffffffffffffffffffffffffffffffffffffff021916908373ffffffffffffffffffffffffffffffffffffffff160217905550565b600a81565b6000600760009054906101000a900473ffffffffffffffffffffffffffffffffffffffff16905090565b7f000000000000000000000000000000000000000000000000000000000000000073ffffffffffffffffffffffffffffffffffffffff163373ffffffffffffffffffffffffffffffffffffffff1614611537576040517f08c379a000000000000000000000000000000000000000000000000000000000815260040161152e90614260565b60405180910390fd5b61154182826126a1565b5050565b60606001805461155490614662565b80601f016020809104026020016040519081016040528092919081815260200182805461158090614662565b80156115cd5780601f106115a2576101008083540402835291602001916115cd565b820191906000526020600020905b8154815290600101906020018083116115b057829003601f168201915b5050505050905090565b600a5481565b6115e5612072565b73ffffffffffffffffffffffffffffffffffffffff168273ffffffffffffffffffffffffffffffffffffffff161415611653576040517f08c379a000000000000000000000000000000000000000000000000000000000815260040161164a906140c0565b60405180910390fd5b8060056000611660612072565b73ffffffffffffffffffffffffffffffffffffffff1673ffffffffffffffffffffffffffffffffffffffff16815260200190815260200160002060008473ffffffffffffffffffffffffffffffffffffffff1673ffffffffffffffffffffffffffffffffffffffff16815260200190815260200160002060006101000a81548160ff0219169083151502179055508173ffffffffffffffffffffffffffffffffffffffff1661170d612072565b73ffffffffffffffffffffffffffffffffffffffff167f17307eab39ab6107e8899845ad3d59bd9653f200f220920489ca2b5937696c31836040516117529190613f5a565b60405180910390a35050565b60095481565b61176c612072565b73ffffffffffffffffffffffffffffffffffffffff1661178a61147f565b73ffffffffffffffffffffffffffffffffffffffff16146117e0576040517f08c379a00000000000000000000000000000000000000000000000000000000081526004016117d790614200565b60405180910390fd5b601060009054906101000a900473ffffffffffffffffffffffffffffffffffffffff1673ffffffffffffffffffffffffffffffffffffffff1663a9059cbb33600c546040518363ffffffff1660e01b815260040161183f929190613ed1565b602060405180830381600087803b15801561185957600080fd5b505af115801561186d573d6000803e3d6000fd5b505050506040513d601f19601f8201168201806040525081019061189191906137eb565b506000600c81905550565b6118ad6118a7612072565b83612349565b6118ec576040517f08c379a00000000000000000000000000000000000000000000000000000000081526004016118e3906142a0565b60405180910390fd5b6118f8848484846126b5565b50505050565b600061190933611285565b90506000811161194e576040517f08c379a000000000000000000000000000000000000000000000000000000000815260040161194590614080565b60405180910390fd5b600080600190505b60085481116119fa5761196881612006565b80156119a757503373ffffffffffffffffffffffffffffffffffffffff1661198f826111d3565b73ffffffffffffffffffffffffffffffffffffffff16145b156119e7576011600082815260200190815260200160002054826119cb919061443f565b9150600060116000838152602001908152602001600020819055505b80806119f2906146c5565b915050611956565b50601060009054906101000a900473ffffffffffffffffffffffffffffffffffffffff1673ffffffffffffffffffffffffffffffffffffffff166323b872dd3033846040518463ffffffff1660e01b8152600401611a5a93929190613e4e565b602060405180830381600087803b158015611a7457600080fd5b505af1158015611a88573d6000803e3d6000fd5b505050506040513d601f19601f82011682018060405250810190611aac91906137eb565b505050565b6060611abc82612006565b611afb576040517f08c379a0000000000000000000000000000000000000000000000000000000008152600401611af290614240565b60405180910390fd5b6000611b05612711565b90506000815111611b255760405180602001604052806000815250611b50565b80611b2f84612728565b604051602001611b40929190613de6565b6040516020818303038152906040525b915050919050565b60116020528060005260406000206000915090505481565b60606000611b7d33611285565b90506000811415611c0057600067ffffffffffffffff811115611bc9577f4e487b7100000000000000000000000000000000000000000000000000000000600052604160045260246000fd5b604051908082528060200260200182016040528015611bf75781602001602082028036833780820191505090505b50915050611d47565b60008167ffffffffffffffff811115611c42577f4e487b7100000000000000000000000000000000000000000000000000000000600052604160045260246000fd5b604051908082528060200260200182016040528015611c705781602001602082028036833780820191505090505b50905060006008549050600080600190505b828111611d3e57611c9281612006565b8015611cd157503373ffffffffffffffffffffffffffffffffffffffff16611cb9826111d3565b73ffffffffffffffffffffffffffffffffffffffff16145b15611d2b5780848381518110611d10577f4e487b7100000000000000000000000000000000000000000000000000000000600052603260045260246000fd5b6020026020010181815250508180611d27906146c5565b9250505b8080611d36906146c5565b915050611c82565b50829450505050505b90565b6000600560008473ffffffffffffffffffffffffffffffffffffffff1673ffffffffffffffffffffffffffffffffffffffff16815260200190815260200160002060008373ffffffffffffffffffffffffffffffffffffffff1673ffffffffffffffffffffffffffffffffffffffff16815260200190815260200160002060009054906101000a900460ff16905092915050565b600b5481565b600c5481565b611df2612072565b73ffffffffffffffffffffffffffffffffffffffff16611e1061147f565b73ffffffffffffffffffffffffffffffffffffffff1614611e66576040517f08c379a0000000000000000000000000000000000000000000000000000000008152600401611e5d90614200565b60405180910390fd5b600073ffffffffffffffffffffffffffffffffffffffff168173ffffffffffffffffffffffffffffffffffffffff161415611ed6576040517f08c379a0000000000000000000000000000000000000000000000000000000008152600401611ecd90614040565b60405180910390fd5b8073ffffffffffffffffffffffffffffffffffffffff16600760009054906101000a900473ffffffffffffffffffffffffffffffffffffffff1673ffffffffffffffffffffffffffffffffffffffff167f8be0079c531659141344cd1fd0a4f28419497f9722a3daafe3b4186f6b6457e060405160405180910390a380600760006101000a81548173ffffffffffffffffffffffffffffffffffffffff021916908373ffffffffffffffffffffffffffffffffffffffff16021790555050565b60085481565b60007f01ffc9a7000000000000000000000000000000000000000000000000000000007bffffffffffffffffffffffffffffffffffffffffffffffffffffffff1916827bffffffffffffffffffffffffffffffffffffffffffffffffffffffff1916149050919050565b60008073ffffffffffffffffffffffffffffffffffffffff166002600084815260200190815260200160002060009054906101000a900473ffffffffffffffffffffffffffffffffffffffff1673ffffffffffffffffffffffffffffffffffffffff1614159050919050565b600033905090565b816004600083815260200190815260200160002060006101000a81548173ffffffffffffffffffffffffffffffffffffffff021916908373ffffffffffffffffffffffffffffffffffffffff160217905550808273ffffffffffffffffffffffffffffffffffffffff166120ed836111d3565b73ffffffffffffffffffffffffffffffffffffffff167f8c5be1e5ebec7d5bd14f71427d1e84f3dd0314c0f7b2291e5b200ac8c7c3b92560405160405180910390a45050565b6000600e547f000000000000000000000000000000000000000000000000000000000000000073ffffffffffffffffffffffffffffffffffffffff166370a08231306040518263ffffffff1660e01b81526004016121919190613e0a565b60206040518083038186803b1580156121a957600080fd5b505afa1580156121bd573d6000803e3d6000fd5b505050506040513d601f19601f820116820180604052508101906121e191906138cb565b1015612222576040517f08c379a0000000000000000000000000000000000000000000000000000000008152600401612219906140e0565b60405180910390fd5b612231600d54600e54846128d5565b9050919050565b6000612243826111d3565b905061225181600084612a36565b61225c60008361207a565b6001600360008373ffffffffffffffffffffffffffffffffffffffff1673ffffffffffffffffffffffffffffffffffffffff16815260200190815260200160002060008282546122ac9190614520565b925050819055506002600083815260200190815260200160002060006101000a81549073ffffffffffffffffffffffffffffffffffffffff021916905581600073ffffffffffffffffffffffffffffffffffffffff168273ffffffffffffffffffffffffffffffffffffffff167fddf252ad1be2c89b69c2b068fc378daa952ba7f163c4a11628f55a4df523b3ef60405160405180910390a45050565b600061235482612006565b612393576040517f08c379a000000000000000000000000000000000000000000000000000000000815260040161238a90614100565b60405180910390fd5b600061239e836111d3565b90508073ffffffffffffffffffffffffffffffffffffffff168473ffffffffffffffffffffffffffffffffffffffff16148061240d57508373ffffffffffffffffffffffffffffffffffffffff166123f5846109b3565b73ffffffffffffffffffffffffffffffffffffffff16145b8061241e575061241d8185611d4a565b5b91505092915050565b8273ffffffffffffffffffffffffffffffffffffffff16612447826111d3565b73ffffffffffffffffffffffffffffffffffffffff161461249d576040517f08c379a000000000000000000000000000000000000000000000000000000000815260040161249490614220565b60405180910390fd5b600073ffffffffffffffffffffffffffffffffffffffff168273ffffffffffffffffffffffffffffffffffffffff16141561250d576040517f08c379a0000000000000000000000000000000000000000000000000000000008152600401612504906140a0565b60405180910390fd5b612518838383612a36565b61252360008261207a565b6001600360008573ffffffffffffffffffffffffffffffffffffffff1673ffffffffffffffffffffffffffffffffffffffff16815260200190815260200160002060008282546125739190614520565b925050819055506001600360008473ffffffffffffffffffffffffffffffffffffffff1673ffffffffffffffffffffffffffffffffffffffff16815260200190815260200160002060008282546125ca919061443f565b92505081905550816002600083815260200190815260200160002060006101000a81548173ffffffffffffffffffffffffffffffffffffffff021916908373ffffffffffffffffffffffffffffffffffffffff160217905550808273ffffffffffffffffffffffffffffffffffffffff168473ffffffffffffffffffffffffffffffffffffffff167fddf252ad1be2c89b69c2b068fc378daa952ba7f163c4a11628f55a4df523b3ef60405160405180910390a4505050565b61269d828260405180602001604052806000815250612a3b565b5050565b6126b0600a5460095483612a96565b505050565b6126c0848484612427565b6126cc848484846130d3565b61270b576040517f08c379a000000000000000000000000000000000000000000000000000000000815260040161270290614020565b60405180910390fd5b50505050565b606060405180602001604052806000815250905090565b60606000821415612770576040518060400160405280600181526020017f300000000000000000000000000000000000000000000000000000000000000081525090506128d0565b600082905060005b600082146127a257808061278b906146c5565b915050600a8261279b9190614495565b9150612778565b60008167ffffffffffffffff8111156127e4577f4e487b7100000000000000000000000000000000000000000000000000000000600052604160045260246000fd5b6040519080825280601f01601f1916602001820160405280156128165781602001600182028036833780820191505090505b5090505b600085146128c95760018261282f9190614520565b9150600a8561283e9190614722565b603061284a919061443f565b60f81b818381518110612886577f4e487b7100000000000000000000000000000000000000000000000000000000600052603260045260246000fd5b60200101907effffffffffffffffffffffffffffffffffffffffffffffffffffffffffffff1916908160001a905350600a856128c29190614495565b945061281a565b8093505050505b919050565b60007f000000000000000000000000000000000000000000000000000000000000000073ffffffffffffffffffffffffffffffffffffffff16634000aea07f0000000000000000000000000000000000000000000000000000000000000000858786604051602001612948929190613f75565b6040516020818303038152906040526040518463ffffffff1660e01b815260040161297593929190613efa565b602060405180830381600087803b15801561298f57600080fd5b505af11580156129a3573d6000803e3d6000fd5b505050506040513d601f19601f820116820180604052508101906129c791906137eb565b5060006129e9858430600660008a81526020019081526020016000205461326a565b905060016006600087815260200190815260200160002054612a0b919061443f565b6006600087815260200190815260200160002081905550612a2c85826132a6565b9150509392505050565b505050565b612a4583836132d9565b612a5260008484846130d3565b612a91576040517f08c379a0000000000000000000000000000000000000000000000000000000008152600401612a8890614020565b60405180910390fd5b505050565b60008060008585612aa79190614520565b67ffffffffffffffff811115612ae6577f4e487b7100000000000000000000000000000000000000000000000000000000600052604160045260246000fd5b604051908082528060200260200182016040528015612b145781602001602082028036833780820191505090505b50905060008592505b86831115612b8c5782828281518110612b5f577f4e487b7100000000000000000000000000000000000000000000000000000000600052603260045260246000fd5b6020026020010181815250508080612b76906146c5565b9150508280612b8490614638565b935050612b1d565b6000674563918244f400008351612ba391906144c6565b90506000612bcf6103e8612bc1600a856134a790919063ffffffff16565b6134bd90919063ffffffff16565b905080600c6000828254612be3919061443f565b925050819055508082612bf69190614520565b9150612c00613512565b600085511415612c1957600196505050505050506130cc565b600185511415612c51576040518060600160405280606460ff168152602001600060ff168152602001600060ff168152509050612cbe565b600285511415612c89576040518060600160405280603260ff168152602001603260ff168152602001600060ff168152509050612cbd565b6003855110612cbc576040518060600160405280603260ff168152602001602360ff168152602001600f60ff1681525090505b5b5b60008096505b60038710156130c0576000828860038110612d08577f4e487b7100000000000000000000000000000000000000000000000000000000600052603260045260246000fd5b602002015160ff1611156130ad57612d68612d2e600188516134d390919063ffffffff16565b8a89604051602001612d41929190614344565b6040516020818303038152906040528051906020012060001c6134e990919063ffffffff16565b9050612dd06064612dc2848a60038110612dab577f4e487b7100000000000000000000000000000000000000000000000000000000600052603260045260246000fd5b602002015160ff16876134a790919063ffffffff16565b6134bd90919063ffffffff16565b60116000888481518110612e0d577f4e487b7100000000000000000000000000000000000000000000000000000000600052603260045260246000fd5b602002602001015181526020019081526020016000208190555060116000878381518110612e64577f4e487b7100000000000000000000000000000000000000000000000000000000600052603260045260246000fd5b6020026020010151815260200190815260200160002054868281518110612eb4577f4e487b7100000000000000000000000000000000000000000000000000000000600052603260045260246000fd5b60200260200101517f96382c8081657745f2d6cd58a23e5d3a48c473568fb49451a2ecae5fcbca3cf460405160405180910390a3600286511180612f19575060028651148015612f185750612f14600187516134d390919063ffffffff16565b8114155b5b1561305b57858181518110612f57577f4e487b7100000000000000000000000000000000000000000000000000000000600052603260045260246000fd5b60200260200101600081525085612f79600188516134d390919063ffffffff16565b81518110612fb0577f4e487b7100000000000000000000000000000000000000000000000000000000600052603260045260246000fd5b6020026020010151868281518110612ff1577f4e487b7100000000000000000000000000000000000000000000000000000000600052603260045260246000fd5b60200260200101818152505085613013600188516134d390919063ffffffff16565b8151811061304a577f4e487b7100000000000000000000000000000000000000000000000000000000600052603260045260246000fd5b6020026020010160008152506130ac565b6002865114156130ab5785818151811061309e577f4e487b7100000000000000000000000000000000000000000000000000000000600052603260045260246000fd5b6020026020010160008152505b5b5b86806130b8906146c5565b975050612cc4565b60019750505050505050505b9392505050565b60006130f48473ffffffffffffffffffffffffffffffffffffffff166134ff565b1561325d578373ffffffffffffffffffffffffffffffffffffffff1663150b7a0261311d612072565b8786866040518563ffffffff1660e01b815260040161313f9493929190613e85565b602060405180830381600087803b15801561315957600080fd5b505af192505050801561318a57506040513d601f19601f820116820180604052508101906131879190613879565b60015b61320d573d80600081146131ba576040519150601f19603f3d011682016040523d82523d6000602084013e6131bf565b606091505b50600081511415613205576040517f08c379a00000000000000000000000000000000000000000000000000000000081526004016131fc90614020565b60405180910390fd5b805181602001fd5b63150b7a0260e01b7bffffffffffffffffffffffffffffffffffffffffffffffffffffffff1916817bffffffffffffffffffffffffffffffffffffffffffffffffffffffff191614915050613262565b600190505b949350505050565b6000848484846040516020016132839493929190613f9e565b6040516020818303038152906040528051906020012060001c9050949350505050565b600082826040516020016132bb929190613dba565b60405160208183030381529060405280519060200120905092915050565b600073ffffffffffffffffffffffffffffffffffffffff168273ffffffffffffffffffffffffffffffffffffffff161415613349576040517f08c379a0000000000000000000000000000000000000000000000000000000008152600401613340906141c0565b60405180910390fd5b61335281612006565b15613392576040517f08c379a000000000000000000000000000000000000000000000000000000000815260040161338990614060565b60405180910390fd5b61339e60008383612a36565b6001600360008473ffffffffffffffffffffffffffffffffffffffff1673ffffffffffffffffffffffffffffffffffffffff16815260200190815260200160002060008282546133ee919061443f565b92505081905550816002600083815260200190815260200160002060006101000a81548173ffffffffffffffffffffffffffffffffffffffff021916908373ffffffffffffffffffffffffffffffffffffffff160217905550808273ffffffffffffffffffffffffffffffffffffffff16600073ffffffffffffffffffffffffffffffffffffffff167fddf252ad1be2c89b69c2b068fc378daa952ba7f163c4a11628f55a4df523b3ef60405160405180910390a45050565b600081836134b591906144c6565b905092915050565b600081836134cb9190614495565b905092915050565b600081836134e19190614520565b905092915050565b600081836134f79190614722565b905092915050565b600080823b905060008111915050919050565b6040518060600160405280600390602082028036833780820191505090505090565b600061354761354284614392565b61436d565b90508281526020810184848401111561355f57600080fd5b61356a8482856145f6565b509392505050565b60008135905061358181614e2f565b92915050565b60008135905061359681614e46565b92915050565b6000815190506135ab81614e46565b92915050565b6000813590506135c081614e5d565b92915050565b6000813590506135d581614e74565b92915050565b6000815190506135ea81614e74565b92915050565b600082601f83011261360157600080fd5b8135613611848260208601613534565b91505092915050565b60008135905061362981614e8b565b92915050565b60008151905061363e81614e8b565b92915050565b60006020828403121561365657600080fd5b600061366484828501613572565b91505092915050565b6000806040838503121561368057600080fd5b600061368e85828601613572565b925050602061369f85828601613572565b9150509250929050565b6000806000606084860312156136be57600080fd5b60006136cc86828701613572565b93505060206136dd86828701613572565b92505060406136ee8682870161361a565b9150509250925092565b6000806000806080858703121561370e57600080fd5b600061371c87828801613572565b945050602061372d87828801613572565b935050604061373e8782880161361a565b925050606085013567ffffffffffffffff81111561375b57600080fd5b613767878288016135f0565b91505092959194509250565b6000806040838503121561378657600080fd5b600061379485828601613572565b92505060206137a585828601613587565b9150509250929050565b600080604083850312156137c257600080fd5b60006137d085828601613572565b92505060206137e18582860161361a565b9150509250929050565b6000602082840312156137fd57600080fd5b600061380b8482850161359c565b91505092915050565b6000806040838503121561382757600080fd5b6000613835858286016135b1565b92505060206138468582860161361a565b9150509250929050565b60006020828403121561386257600080fd5b6000613870848285016135c6565b91505092915050565b60006020828403121561388b57600080fd5b6000613899848285016135db565b91505092915050565b6000602082840312156138b457600080fd5b60006138c28482850161361a565b91505092915050565b6000602082840312156138dd57600080fd5b60006138eb8482850161362f565b91505092915050565b60006139008383613d85565b60208301905092915050565b61391581614554565b82525050565b6000613926826143d3565b6139308185614401565b935061393b836143c3565b8060005b8381101561396c57815161395388826138f4565b975061395e836143f4565b92505060018101905061393f565b5085935050505092915050565b61398281614566565b82525050565b61399181614572565b82525050565b6139a86139a382614572565b61470e565b82525050565b60006139b9826143de565b6139c38185614412565b93506139d3818560208601614605565b6139dc8161480f565b840191505092915050565b6139f0816145d2565b82525050565b6000613a01826143e9565b613a0b8185614423565b9350613a1b818560208601614605565b613a248161480f565b840191505092915050565b6000613a3a826143e9565b613a448185614434565b9350613a54818560208601614605565b80840191505092915050565b6000613a6d603283614423565b9150613a7882614820565b604082019050919050565b6000613a90602683614423565b9150613a9b8261486f565b604082019050919050565b6000613ab3601c83614423565b9150613abe826148be565b602082019050919050565b6000613ad6601b83614423565b9150613ae1826148e7565b602082019050919050565b6000613af9602483614423565b9150613b0482614910565b604082019050919050565b6000613b1c601983614423565b9150613b278261495f565b602082019050919050565b6000613b3f602b83614423565b9150613b4a82614988565b604082019050919050565b6000613b62602c83614423565b9150613b6d826149d7565b604082019050919050565b6000613b85603283614423565b9150613b9082614a26565b604082019050919050565b6000613ba8603883614423565b9150613bb382614a75565b604082019050919050565b6000613bcb602a83614423565b9150613bd682614ac4565b604082019050919050565b6000613bee602983614423565b9150613bf982614b13565b604082019050919050565b6000613c11601a83614423565b9150613c1c82614b62565b602082019050919050565b6000613c34602083614423565b9150613c3f82614b8b565b602082019050919050565b6000613c57602c83614423565b9150613c6282614bb4565b604082019050919050565b6000613c7a602083614423565b9150613c8582614c03565b602082019050919050565b6000613c9d602983614423565b9150613ca882614c2c565b604082019050919050565b6000613cc0602f83614423565b9150613ccb82614c7b565b604082019050919050565b6000613ce3601f83614423565b9150613cee82614cca565b602082019050919050565b6000613d06602183614423565b9150613d1182614cf3565b604082019050919050565b6000613d29603183614423565b9150613d3482614d42565b604082019050919050565b6000613d4c603083614423565b9150613d5782614d91565b604082019050919050565b6000613d6f603583614423565b9150613d7a82614de0565b604082019050919050565b613d8e816145c8565b82525050565b613d9d816145c8565b82525050565b613db4613daf826145c8565b614718565b82525050565b6000613dc68285613997565b602082019150613dd68284613da3565b6020820191508190509392505050565b6000613df28285613a2f565b9150613dfe8284613a2f565b91508190509392505050565b6000602082019050613e1f600083018461390c565b92915050565b6000604082019050613e3a600083018561390c565b613e47602083018461390c565b9392505050565b6000606082019050613e63600083018661390c565b613e70602083018561390c565b613e7d6040830184613d94565b949350505050565b6000608082019050613e9a600083018761390c565b613ea7602083018661390c565b613eb46040830185613d94565b8181036060830152613ec681846139ae565b905095945050505050565b6000604082019050613ee6600083018561390c565b613ef36020830184613d94565b9392505050565b6000606082019050613f0f600083018661390c565b613f1c6020830185613d94565b8181036040830152613f2e81846139ae565b9050949350505050565b60006020820190508181036000830152613f52818461391b565b905092915050565b6000602082019050613f6f6000830184613979565b92915050565b6000604082019050613f8a6000830185613988565b613f976020830184613d94565b9392505050565b6000608082019050613fb36000830187613988565b613fc06020830186613d94565b613fcd604083018561390c565b613fda6060830184613d94565b95945050505050565b6000602082019050613ff860008301846139e7565b92915050565b6000602082019050818103600083015261401881846139f6565b905092915050565b6000602082019050818103600083015261403981613a60565b9050919050565b6000602082019050818103600083015261405981613a83565b9050919050565b6000602082019050818103600083015261407981613aa6565b9050919050565b6000602082019050818103600083015261409981613ac9565b9050919050565b600060208201905081810360008301526140b981613aec565b9050919050565b600060208201905081810360008301526140d981613b0f565b9050919050565b600060208201905081810360008301526140f981613b32565b9050919050565b6000602082019050818103600083015261411981613b55565b9050919050565b6000602082019050818103600083015261413981613b78565b9050919050565b6000602082019050818103600083015261415981613b9b565b9050919050565b6000602082019050818103600083015261417981613bbe565b9050919050565b6000602082019050818103600083015261419981613be1565b9050919050565b600060208201905081810360008301526141b981613c04565b9050919050565b600060208201905081810360008301526141d981613c27565b9050919050565b600060208201905081810360008301526141f981613c4a565b9050919050565b6000602082019050818103600083015261421981613c6d565b9050919050565b6000602082019050818103600083015261423981613c90565b9050919050565b6000602082019050818103600083015261425981613cb3565b9050919050565b6000602082019050818103600083015261427981613cd6565b9050919050565b6000602082019050818103600083015261429981613cf9565b9050919050565b600060208201905081810360008301526142b981613d1c565b9050919050565b600060208201905081810360008301526142d981613d3f565b9050919050565b600060208201905081810360008301526142f981613d62565b9050919050565b60006020820190506143156000830184613d94565b92915050565b60006040820190506143306000830185613d94565b61433d6020830184613988565b9392505050565b60006040820190506143596000830185613d94565b6143666020830184613d94565b9392505050565b6000614377614388565b90506143838282614694565b919050565b6000604051905090565b600067ffffffffffffffff8211156143ad576143ac6147e0565b5b6143b68261480f565b9050602081019050919050565b6000819050602082019050919050565b600081519050919050565b600081519050919050565b600081519050919050565b6000602082019050919050565b600082825260208201905092915050565b600082825260208201905092915050565b600082825260208201905092915050565b600081905092915050565b600061444a826145c8565b9150614455836145c8565b9250827fffffffffffffffffffffffffffffffffffffffffffffffffffffffffffffffff0382111561448a57614489614753565b5b828201905092915050565b60006144a0826145c8565b91506144ab836145c8565b9250826144bb576144ba614782565b5b828204905092915050565b60006144d1826145c8565b91506144dc836145c8565b9250817fffffffffffffffffffffffffffffffffffffffffffffffffffffffffffffffff048311821515161561451557614514614753565b5b828202905092915050565b600061452b826145c8565b9150614536836145c8565b92508282101561454957614548614753565b5b828203905092915050565b600061455f826145a8565b9050919050565b60008115159050919050565b6000819050919050565b60007fffffffff0000000000000000000000000000000000000000000000000000000082169050919050565b600073ffffffffffffffffffffffffffffffffffffffff82169050919050565b6000819050919050565b60006145dd826145e4565b9050919050565b60006145ef826145a8565b9050919050565b82818337600083830152505050565b60005b83811015614623578082015181840152602081019050614608565b83811115614632576000848401525b50505050565b6000614643826145c8565b9150600082141561465757614656614753565b5b600182039050919050565b6000600282049050600182168061467a57607f821691505b6020821081141561468e5761468d6147b1565b5b50919050565b61469d8261480f565b810181811067ffffffffffffffff821117156146bc576146bb6147e0565b5b80604052505050565b60006146d0826145c8565b91507fffffffffffffffffffffffffffffffffffffffffffffffffffffffffffffffff82141561470357614702614753565b5b600182019050919050565b6000819050919050565b6000819050919050565b600061472d826145c8565b9150614738836145c8565b92508261474857614747614782565b5b828206905092915050565b7f4e487b7100000000000000000000000000000000000000000000000000000000600052601160045260246000fd5b7f4e487b7100000000000000000000000000000000000000000000000000000000600052601260045260246000fd5b7f4e487b7100000000000000000000000000000000000000000000000000000000600052602260045260246000fd5b7f4e487b7100000000000000000000000000000000000000000000000000000000600052604160045260246000fd5b6000601f19601f8301169050919050565b7f4552433732313a207472616e7366657220746f206e6f6e20455243373231526560008201527f63656976657220696d706c656d656e7465720000000000000000000000000000602082015250565b7f4f776e61626c653a206e6577206f776e657220697320746865207a65726f206160008201527f6464726573730000000000000000000000000000000000000000000000000000602082015250565b7f4552433732313a20746f6b656e20616c7265616479206d696e74656400000000600082015250565b7f596f7520646f206e6f74206f776e20616e79207469636b6574732e0000000000600082015250565b7f4552433732313a207472616e7366657220746f20746865207a65726f2061646460008201527f7265737300000000000000000000000000000000000000000000000000000000602082015250565b7f4552433732313a20617070726f766520746f2063616c6c657200000000000000600082015250565b7f4e6f7420656e6f756768204c494e4b202d2066696c6c20636f6e74726163742060008201527f7769746820666175636574000000000000000000000000000000000000000000602082015250565b7f4552433732313a206f70657261746f7220717565727920666f72206e6f6e657860008201527f697374656e7420746f6b656e0000000000000000000000000000000000000000602082015250565b7f53656e64657220646f6573206e6f74206861766520746865207265717569726560008201527f642062616c616e636520746f2073656e642e0000000000000000000000000000602082015250565b7f4552433732313a20617070726f76652063616c6c6572206973206e6f74206f7760008201527f6e6572206e6f7220617070726f76656420666f7220616c6c0000000000000000602082015250565b7f4552433732313a2062616c616e636520717565727920666f7220746865207a6560008201527f726f206164647265737300000000000000000000000000000000000000000000602082015250565b7f4552433732313a206f776e657220717565727920666f72206e6f6e657869737460008201527f656e7420746f6b656e0000000000000000000000000000000000000000000000602082015250565b7f4c6f7474657279206d757374206578706972652066697273742e000000000000600082015250565b7f4552433732313a206d696e7420746f20746865207a65726f2061646472657373600082015250565b7f4552433732313a20617070726f76656420717565727920666f72206e6f6e657860008201527f697374656e7420746f6b656e0000000000000000000000000000000000000000602082015250565b7f4f776e61626c653a2063616c6c6572206973206e6f7420746865206f776e6572600082015250565b7f4552433732313a207472616e73666572206f6620746f6b656e2074686174206960008201527f73206e6f74206f776e0000000000000000000000000000000000000000000000602082015250565b7f4552433732314d657461646174613a2055524920717565727920666f72206e6f60008201527f6e6578697374656e7420746f6b656e0000000000000000000000000000000000602082015250565b7f4f6e6c7920565246436f6f7264696e61746f722063616e2066756c66696c6c00600082015250565b7f4552433732313a20617070726f76616c20746f2063757272656e74206f776e6560008201527f7200000000000000000000000000000000000000000000000000000000000000602082015250565b7f4552433732313a207472616e736665722063616c6c6572206973206e6f74206f60008201527f776e6572206e6f7220617070726f766564000000000000000000000000000000602082015250565b7f4552433732314275726e61626c653a2063616c6c6572206973206e6f74206f7760008201527f6e6572206e6f7220617070726f76656400000000000000000000000000000000602082015250565b7f436f6e747261637420646f6573206e6f742068617665207065726d697373696f60008201527f6e20746f207472616e7366657220746f6b656e732e0000000000000000000000602082015250565b614e3881614554565b8114614e4357600080fd5b50565b614e4f81614566565b8114614e5a57600080fd5b50565b614e6681614572565b8114614e7157600080fd5b50565b614e7d8161457c565b8114614e8857600080fd5b50565b614e94816145c8565b8114614e9f57600080fd5b5056fea2646970667358221220676f836d80854250c7b7f35c4233eec48468e1e6c092e9b449806f9ddb2af9e864736f6c63430008040033",
  "immutableReferences": {
    "914": [
      {
        "length": 32,
        "start": 8506
      },
      {
        "length": 32,
        "start": 10457
      }
    ],
    "916": [
      {
        "length": 32,
        "start": 5291
      },
      {
        "length": 32,
        "start": 10517
      }
    ]
  },
  "source": "// SPDX-License-Identifier: MIT\npragma solidity >=0.8.2 <0.9.0;\n\nimport \"@openzeppelin/contracts/token/ERC721/extensions/ERC721Burnable.sol\";\nimport \"@openzeppelin/contracts/access/Ownable.sol\";\nimport \"@openzeppelin/contracts/utils/math/SafeMath.sol\";\nimport \"@chainlink/contracts/src/v0.8/dev/VRFConsumerBase.sol\";\nimport 'synthetix/contracts/interfaces/IAddressResolver.sol';\nimport 'synthetix/contracts/interfaces/IERC20.sol';\n\ncontract LotteryTicket is ERC721Burnable, VRFConsumerBase, Ownable {\n    using SafeMath for uint256;\n\n    // Lottery settings\n    uint256 public constant ticketPrice = 5 * 1000000000000000000;\n    uint256 public constant duration = 10 minutes;\n    uint256 public constant lotteryFee = 10;  // 1%\n\n    // Ticket NFT\n    uint256 public ticketId;\n\n    // Track id ranges for current and previous lottery\n    uint256 public ticketFloor;\n    uint256 public prevTicketFloor;\n\n    // End date for current lottery\n    uint256 public end;\n\n    // Lottery fees collected\n    uint256 public feesCollected;\n\n    // Randomness management\n    bytes32 internal keyHash;\n    uint256 internal fee;\n\n    // sUSD token interfaces\n    IAddressResolver public synthetixResolver;\n    address private synthAddress;\n\n    // Track prizes\n    mapping (uint256 => uint256) public ticketToPrize;\n\n    // Events\n    event LotteryEnded(uint256 ticketFloor, bytes32 requestId);\n    event PrizePaid(uint256 indexed ticketId, uint256 indexed prize);\n    event TicketBurned(uint256 indexed ticketId);\n\n    /**\n     * Start the lottery process with verified randomness and sUSD transactions.\n     */\n    constructor( address _vrfCoordinator, address _linkToken, address _resolver, bytes32 _keyHash) payable\n    ERC721(\"LotteryTicket\", \"TIX\")\n    VRFConsumerBase(_vrfCoordinator, _linkToken) {\n        // Manage sUSD\n        synthetixResolver = IAddressResolver(_resolver);\n        synthAddress = synthetixResolver.getAddress('ProxyERC20sUSD');\n        require(synthAddress != address(0), 'sUSD is missing from Synthetix resolver');\n\n        // Manage randomness and start lottery\n        keyHash = _keyHash;\n        fee = 0.1 * 10 ** 18;\n        end = block.timestamp + duration;\n    }\n\n    /**\n     * Purchases multiple tickets for the message sender.\n     */\n    function buyTickets(uint256 qty) external payable {\n        // End current lottery\n        if(end < block.timestamp) {\n            endLottery();\n        }\n\n        // Transfer money\n        uint256 amount = ticketPrice*qty;\n        require(checkTokenBalance(msg.sender) >= amount, \"Sender does not have the required balance to send.\");\n        IERC20(synthAddress).approve(address(this), amount);\n        require(checkTokenAllowance(msg.sender, address(this)) >= amount, \"Contract does not have permission to transfer tokens.\");\n        IERC20(synthAddress).transferFrom(msg.sender, address(this), amount);\n\n        // Mint our tickets\n        uint256 t;\n        for(t=0; t<qty; t++) {\n            ticketId++;\n            _safeMint(msg.sender, ticketId);\n        }\n    }\n\n    /**\n     * End a lottery and start selection process.\n     */\n    function endLottery() public {\n        require(end < block.timestamp, \"Lottery must expire first.\");\n\n        // End the Lottery\n        prevTicketFloor = ticketFloor;\n        end = block.timestamp + duration;\n        ticketFloor = ticketId;\n\n        // Request our randomness\n        bytes32 requestId = getRandomNumber(block.timestamp);\n        emit LotteryEnded(prevTicketFloor, requestId);\n    }\n\n    /**\n     * Requests randomness from a user-provided seed\n     */\n    function getRandomNumber(uint256 userProvidedSeed) internal returns (bytes32 _requestId) {\n        require(LINK.balanceOf(address(this)) >= fee, \"Not enough LINK - fill contract with faucet\");\n        return requestRandomness(keyHash, fee, userProvidedSeed);\n    }\n\n    /**\n     * Processes random response, override function required by VRFCoordinator.\n     */\n    function fulfillRandomness(bytes32 _requestId, uint256 randomness) internal override {\n        pickWinners(prevTicketFloor,ticketFloor,randomness);\n    }\n\n    /**\n     * Use random result to pick winners for the previous lottery.\n     */\n    function pickWinners(uint256 ticketStart, uint256 ticketEnd, uint256 randomness) private returns (bool) {\n        uint256 i;\n\n        // Get candidate tickets\n        uint256[] memory tickets = new uint256[](ticketEnd - ticketStart);\n        uint256 resultIndex = 0;\n        for(i=ticketEnd;i>ticketStart;i--) {\n            tickets[resultIndex] = i;\n            resultIndex++;\n        }\n\n        // Calculate prize pool and save some money for lottery fees\n        uint256 totalPrize = tickets.length * ticketPrice;\n        uint256 take = totalPrize.mul(lotteryFee).div(1000);\n        feesCollected += take;\n        totalPrize = totalPrize - take;\n\n        // Adjust splits depending on entrants\n        uint8[3] memory splits;\n        if(tickets.length == 0) {\n            return true;\n        } else if(tickets.length == 1) {\n            splits = [100, 0, 0];\n        } else if(tickets.length == 2) {\n            splits = [50, 50, 0];\n        } else if(tickets.length >= 3) {\n            splits = [50, 35, 15];\n        }\n\n        // Pick the winners\n        uint256 selection;\n        for(i=0; i<splits.length; i++) {\n            if(splits[i] > 0) {\n                // Select the winning ticket\n                selection = uint256(keccak256(abi.encode(randomness, i))).mod(tickets.length.sub(1));\n                ticketToPrize[tickets[selection]] = totalPrize.mul(splits[i]).div(100);\n                emit PrizePaid(tickets[selection], ticketToPrize[tickets[selection]]);\n\n                // Delete the winner and rearrange the tickets so there's 1 less so a ticket doesn't win twice\n                if(tickets.length > 2 || (tickets.length == 2 && selection != tickets.length.sub(1))) {\n                    delete tickets[selection];\n                    tickets[selection] = tickets[tickets.length.sub(1)];\n                    delete tickets[tickets.length.sub(1)];\n                } else if(tickets.length == 2) {\n                    delete tickets[selection];\n                }\n            }\n        }\n\n        return true;\n    }\n\n    /**\n     * Claim my prizes. Once it's claimed we no longer have a record of the prize.\n     */\n    function claimMyPrizes() external {\n        uint256 tokenCount = balanceOf(msg.sender);\n        require(tokenCount>0,\"You do not own any tickets.\");\n        uint256 amount;\n        for (uint256 t = 1; t <= ticketId; t++) {\n            if (_exists(t) && ownerOf(t) == msg.sender) {\n                amount += ticketToPrize[t];\n                ticketToPrize[t] = 0;\n            }\n        }\n\n        // Transfer money\n        IERC20(synthAddress).transferFrom(address(this), msg.sender, amount);\n    }\n\n    /**\n     * Get my tickets helper function for front-end usability.\n     * Concept borrowed from CryptoKitties.\n     */\n    function getMyTickets() view public returns(uint256[] memory) {\n        uint256 tokenCount = balanceOf(msg.sender);\n        if (tokenCount == 0) {\n            return new uint256[](0);\n        } else {\n            uint256[] memory result = new uint256[](tokenCount);\n            uint256 totalTickets = ticketId;\n            uint256 resultIndex = 0;\n            for (uint256 t = 1; t <= totalTickets; t++) {\n                if (_exists(t) && ownerOf(t) == msg.sender) {\n                    result[resultIndex] = t;\n                    resultIndex++;\n                }\n            }\n            return result;\n        }\n    }\n\n\n    /**\n     * Burn expired tickets so they don't show up in your UI or wallet anymore.\n     * It's possible a user could burn tickets before they're paid out, I consider that their loss.\n     * To protect against that change ticketFloor to prevTicketFloor below, but that will cause usability\n     * issues on the front end. Would have to track if a lottery has been paid or not to avoid, increasing\n     * overall contract storage costs.\n     */\n    function burnExpired() external {\n        uint256[] memory tickets = getMyTickets();\n        if(tickets.length > 0) {\n            uint256 i;\n            uint256 _ticketId;\n            for(i=0; i<tickets.length; i++) {\n                _ticketId = tickets[i];\n                if(_ticketId <= ticketFloor && ticketToPrize[_ticketId] == 0) {\n                    _burn(_ticketId);\n                    emit TicketBurned(_ticketId);\n                }\n            }\n        }\n    }\n\n    /**\n     * Withdraw sUSD so we can convert to LINK and put it back.\n     */\n    function withdrawMoney() external onlyOwner {\n        // Transfer money\n        IERC20(synthAddress).transfer(msg.sender, feesCollected);\n        feesCollected = 0;\n    }\n\n    /**\n     * Check token balance of the user.\n     */\n    function checkTokenBalance(address account) public view returns (uint) {\n        return IERC20(synthAddress).balanceOf(account);\n    }\n\n    /**\n     * Check token allowance to the contract.\n     */\n    function checkTokenAllowance(address tokenOwner, address spender) public view returns (uint) {\n        return IERC20(synthAddress).allowance(tokenOwner, spender);\n    }\n}\n",
  "sourcePath": "/Users/Shared/Code/experimental/synthetix-lottery/contracts/LotteryTicket.sol",
  "compiler": {
    "name": "solc",
    "version": "0.8.4+commit.c7e474f2.Emscripten.clang"
  },
  "schemaVersion": "3.4.1",
  "updatedAt": "2021-05-15T16:56:37.707Z",
  "networkType": "ethereum",
  "devdoc": {
    "kind": "dev",
    "methods": {
      "approve(address,uint256)": {
        "details": "See {IERC721-approve}."
      },
      "balanceOf(address)": {
        "details": "See {IERC721-balanceOf}."
      },
      "burn(uint256)": {
        "details": "Burns `tokenId`. See {ERC721-_burn}. Requirements: - The caller must own `tokenId` or be an approved operator."
      },
      "getApproved(uint256)": {
        "details": "See {IERC721-getApproved}."
      },
      "isApprovedForAll(address,address)": {
        "details": "See {IERC721-isApprovedForAll}."
      },
      "name()": {
        "details": "See {IERC721Metadata-name}."
      },
      "owner()": {
        "details": "Returns the address of the current owner."
      },
      "ownerOf(uint256)": {
        "details": "See {IERC721-ownerOf}."
      },
      "renounceOwnership()": {
        "details": "Leaves the contract without owner. It will not be possible to call `onlyOwner` functions anymore. Can only be called by the current owner. NOTE: Renouncing ownership will leave the contract without an owner, thereby removing any functionality that is only available to the owner."
      },
      "safeTransferFrom(address,address,uint256)": {
        "details": "See {IERC721-safeTransferFrom}."
      },
      "safeTransferFrom(address,address,uint256,bytes)": {
        "details": "See {IERC721-safeTransferFrom}."
      },
      "setApprovalForAll(address,bool)": {
        "details": "See {IERC721-setApprovalForAll}."
      },
      "supportsInterface(bytes4)": {
        "details": "See {IERC165-supportsInterface}."
      },
      "symbol()": {
        "details": "See {IERC721Metadata-symbol}."
      },
      "tokenURI(uint256)": {
        "details": "See {IERC721Metadata-tokenURI}."
      },
      "transferFrom(address,address,uint256)": {
        "details": "See {IERC721-transferFrom}."
      },
      "transferOwnership(address)": {
        "details": "Transfers ownership of the contract to a new account (`newOwner`). Can only be called by the current owner."
      }
    },
    "version": 1
  },
  "userdoc": {
    "kind": "user",
    "methods": {
      "burnExpired()": {
        "notice": "Burn expired tickets so they don't show up in your UI or wallet anymore. It's possible a user could burn tickets before they're paid out, I consider that their loss. To protect against that change ticketFloor to prevTicketFloor below, but that will cause usability issues on the front end. Would have to track if a lottery has been paid or not to avoid, increasing overall contract storage costs."
      },
      "buyTickets(uint256)": {
        "notice": "Purchases multiple tickets for the message sender."
      },
      "checkTokenAllowance(address,address)": {
        "notice": "Check token allowance to the contract."
      },
      "checkTokenBalance(address)": {
        "notice": "Check token balance of the user."
      },
      "claimMyPrizes()": {
        "notice": "Claim my prizes. Once it's claimed we no longer have a record of the prize."
      },
      "constructor": {
        "notice": "Start the lottery process with verified randomness and sUSD transactions."
      },
      "endLottery()": {
        "notice": "End a lottery and start selection process."
      },
      "getMyTickets()": {
        "notice": "Get my tickets helper function for front-end usability. Concept borrowed from CryptoKitties."
      },
      "withdrawMoney()": {
        "notice": "Withdraw sUSD so we can convert to LINK and put it back."
      }
    },
    "version": 1
  }
}