{
  "contractName": "LotteryTicket",
  "abi": [
    {
      "inputs": [
        {
          "internalType": "address",
          "name": "_vrfCoordinator",
          "type": "address"
        },
        {
          "internalType": "address",
          "name": "_linkToken",
          "type": "address"
        },
        {
          "internalType": "address",
          "name": "_resolver",
          "type": "address"
        },
        {
          "internalType": "bytes32",
          "name": "_keyHash",
          "type": "bytes32"
        }
      ],
      "stateMutability": "payable",
      "type": "constructor",
      "payable": true
    },
    {
      "anonymous": false,
      "inputs": [
        {
          "indexed": true,
          "internalType": "address",
          "name": "owner",
          "type": "address"
        },
        {
          "indexed": true,
          "internalType": "address",
          "name": "approved",
          "type": "address"
        },
        {
          "indexed": true,
          "internalType": "uint256",
          "name": "tokenId",
          "type": "uint256"
        }
      ],
      "name": "Approval",
      "type": "event"
    },
    {
      "anonymous": false,
      "inputs": [
        {
          "indexed": true,
          "internalType": "address",
          "name": "owner",
          "type": "address"
        },
        {
          "indexed": true,
          "internalType": "address",
          "name": "operator",
          "type": "address"
        },
        {
          "indexed": false,
          "internalType": "bool",
          "name": "approved",
          "type": "bool"
        }
      ],
      "name": "ApprovalForAll",
      "type": "event"
    },
    {
      "anonymous": false,
      "inputs": [
        {
          "indexed": false,
          "internalType": "uint256",
          "name": "ticketFloor",
          "type": "uint256"
        },
        {
          "indexed": false,
          "internalType": "bytes32",
          "name": "requestId",
          "type": "bytes32"
        }
      ],
      "name": "LotteryEnded",
      "type": "event"
    },
    {
      "anonymous": false,
      "inputs": [
        {
          "indexed": true,
          "internalType": "address",
          "name": "previousOwner",
          "type": "address"
        },
        {
          "indexed": true,
          "internalType": "address",
          "name": "newOwner",
          "type": "address"
        }
      ],
      "name": "OwnershipTransferred",
      "type": "event"
    },
    {
      "anonymous": false,
      "inputs": [
        {
          "indexed": true,
          "internalType": "address",
          "name": "from",
          "type": "address"
        },
        {
          "indexed": true,
          "internalType": "address",
          "name": "to",
          "type": "address"
        },
        {
          "indexed": true,
          "internalType": "uint256",
          "name": "tokenId",
          "type": "uint256"
        }
      ],
      "name": "Transfer",
      "type": "event"
    },
    {
      "inputs": [
        {
          "internalType": "address",
          "name": "to",
          "type": "address"
        },
        {
          "internalType": "uint256",
          "name": "tokenId",
          "type": "uint256"
        }
      ],
      "name": "approve",
      "outputs": [],
      "stateMutability": "nonpayable",
      "type": "function"
    },
    {
      "inputs": [
        {
          "internalType": "address",
          "name": "owner",
          "type": "address"
        }
      ],
      "name": "balanceOf",
      "outputs": [
        {
          "internalType": "uint256",
          "name": "",
          "type": "uint256"
        }
      ],
      "stateMutability": "view",
      "type": "function",
      "constant": true
    },
    {
      "inputs": [],
      "name": "contractMoney",
      "outputs": [
        {
          "internalType": "uint256",
          "name": "",
          "type": "uint256"
        }
      ],
      "stateMutability": "view",
      "type": "function",
      "constant": true
    },
    {
      "inputs": [],
      "name": "duration",
      "outputs": [
        {
          "internalType": "uint256",
          "name": "",
          "type": "uint256"
        }
      ],
      "stateMutability": "view",
      "type": "function",
      "constant": true
    },
    {
      "inputs": [],
      "name": "end",
      "outputs": [
        {
          "internalType": "uint256",
          "name": "",
          "type": "uint256"
        }
      ],
      "stateMutability": "view",
      "type": "function",
      "constant": true
    },
    {
      "inputs": [
        {
          "internalType": "uint256",
          "name": "tokenId",
          "type": "uint256"
        }
      ],
      "name": "getApproved",
      "outputs": [
        {
          "internalType": "address",
          "name": "",
          "type": "address"
        }
      ],
      "stateMutability": "view",
      "type": "function",
      "constant": true
    },
    {
      "inputs": [
        {
          "internalType": "address",
          "name": "owner",
          "type": "address"
        },
        {
          "internalType": "address",
          "name": "operator",
          "type": "address"
        }
      ],
      "name": "isApprovedForAll",
      "outputs": [
        {
          "internalType": "bool",
          "name": "",
          "type": "bool"
        }
      ],
      "stateMutability": "view",
      "type": "function",
      "constant": true
    },
    {
      "inputs": [],
      "name": "name",
      "outputs": [
        {
          "internalType": "string",
          "name": "",
          "type": "string"
        }
      ],
      "stateMutability": "view",
      "type": "function",
      "constant": true
    },
    {
      "inputs": [],
      "name": "owner",
      "outputs": [
        {
          "internalType": "address",
          "name": "",
          "type": "address"
        }
      ],
      "stateMutability": "view",
      "type": "function",
      "constant": true
    },
    {
      "inputs": [
        {
          "internalType": "uint256",
          "name": "tokenId",
          "type": "uint256"
        }
      ],
      "name": "ownerOf",
      "outputs": [
        {
          "internalType": "address",
          "name": "",
          "type": "address"
        }
      ],
      "stateMutability": "view",
      "type": "function",
      "constant": true
    },
    {
      "inputs": [],
      "name": "prevTicketFloor",
      "outputs": [
        {
          "internalType": "uint256",
          "name": "",
          "type": "uint256"
        }
      ],
      "stateMutability": "view",
      "type": "function",
      "constant": true
    },
    {
      "inputs": [
        {
          "internalType": "bytes32",
          "name": "requestId",
          "type": "bytes32"
        },
        {
          "internalType": "uint256",
          "name": "randomness",
          "type": "uint256"
        }
      ],
      "name": "rawFulfillRandomness",
      "outputs": [],
      "stateMutability": "nonpayable",
      "type": "function"
    },
    {
      "inputs": [],
      "name": "renounceOwnership",
      "outputs": [],
      "stateMutability": "nonpayable",
      "type": "function"
    },
    {
      "inputs": [],
      "name": "requestId",
      "outputs": [
        {
          "internalType": "bytes32",
          "name": "",
          "type": "bytes32"
        }
      ],
      "stateMutability": "view",
      "type": "function",
      "constant": true
    },
    {
      "inputs": [
        {
          "internalType": "address",
          "name": "from",
          "type": "address"
        },
        {
          "internalType": "address",
          "name": "to",
          "type": "address"
        },
        {
          "internalType": "uint256",
          "name": "tokenId",
          "type": "uint256"
        }
      ],
      "name": "safeTransferFrom",
      "outputs": [],
      "stateMutability": "nonpayable",
      "type": "function"
    },
    {
      "inputs": [
        {
          "internalType": "address",
          "name": "from",
          "type": "address"
        },
        {
          "internalType": "address",
          "name": "to",
          "type": "address"
        },
        {
          "internalType": "uint256",
          "name": "tokenId",
          "type": "uint256"
        },
        {
          "internalType": "bytes",
          "name": "_data",
          "type": "bytes"
        }
      ],
      "name": "safeTransferFrom",
      "outputs": [],
      "stateMutability": "nonpayable",
      "type": "function"
    },
    {
      "inputs": [
        {
          "internalType": "address",
          "name": "operator",
          "type": "address"
        },
        {
          "internalType": "bool",
          "name": "approved",
          "type": "bool"
        }
      ],
      "name": "setApprovalForAll",
      "outputs": [],
      "stateMutability": "nonpayable",
      "type": "function"
    },
    {
      "inputs": [
        {
          "internalType": "bytes4",
          "name": "interfaceId",
          "type": "bytes4"
        }
      ],
      "name": "supportsInterface",
      "outputs": [
        {
          "internalType": "bool",
          "name": "",
          "type": "bool"
        }
      ],
      "stateMutability": "view",
      "type": "function",
      "constant": true
    },
    {
      "inputs": [],
      "name": "symbol",
      "outputs": [
        {
          "internalType": "string",
          "name": "",
          "type": "string"
        }
      ],
      "stateMutability": "view",
      "type": "function",
      "constant": true
    },
    {
      "inputs": [],
      "name": "synthAddress",
      "outputs": [
        {
          "internalType": "address",
          "name": "",
          "type": "address"
        }
      ],
      "stateMutability": "view",
      "type": "function",
      "constant": true
    },
    {
      "inputs": [],
      "name": "synthetixResolver",
      "outputs": [
        {
          "internalType": "contract IAddressResolver",
          "name": "",
          "type": "address"
        }
      ],
      "stateMutability": "view",
      "type": "function",
      "constant": true
    },
    {
      "inputs": [],
      "name": "ticketFloor",
      "outputs": [
        {
          "internalType": "uint256",
          "name": "",
          "type": "uint256"
        }
      ],
      "stateMutability": "view",
      "type": "function",
      "constant": true
    },
    {
      "inputs": [],
      "name": "ticketId",
      "outputs": [
        {
          "internalType": "uint256",
          "name": "",
          "type": "uint256"
        }
      ],
      "stateMutability": "view",
      "type": "function",
      "constant": true
    },
    {
      "inputs": [],
      "name": "ticketPrice",
      "outputs": [
        {
          "internalType": "uint256",
          "name": "",
          "type": "uint256"
        }
      ],
      "stateMutability": "view",
      "type": "function",
      "constant": true
    },
    {
      "inputs": [
        {
          "internalType": "uint256",
          "name": "",
          "type": "uint256"
        }
      ],
      "name": "ticketToPrize",
      "outputs": [
        {
          "internalType": "uint256",
          "name": "",
          "type": "uint256"
        }
      ],
      "stateMutability": "view",
      "type": "function",
      "constant": true
    },
    {
      "inputs": [
        {
          "internalType": "uint256",
          "name": "tokenId",
          "type": "uint256"
        }
      ],
      "name": "tokenURI",
      "outputs": [
        {
          "internalType": "string",
          "name": "",
          "type": "string"
        }
      ],
      "stateMutability": "view",
      "type": "function",
      "constant": true
    },
    {
      "inputs": [
        {
          "internalType": "address",
          "name": "from",
          "type": "address"
        },
        {
          "internalType": "address",
          "name": "to",
          "type": "address"
        },
        {
          "internalType": "uint256",
          "name": "tokenId",
          "type": "uint256"
        }
      ],
      "name": "transferFrom",
      "outputs": [],
      "stateMutability": "nonpayable",
      "type": "function"
    },
    {
      "inputs": [
        {
          "internalType": "address",
          "name": "newOwner",
          "type": "address"
        }
      ],
      "name": "transferOwnership",
      "outputs": [],
      "stateMutability": "nonpayable",
      "type": "function"
    },
    {
      "inputs": [
        {
          "internalType": "uint256",
          "name": "qty",
          "type": "uint256"
        }
      ],
      "name": "buyTickets",
      "outputs": [],
      "stateMutability": "payable",
      "type": "function",
      "payable": true
    },
    {
      "inputs": [],
      "name": "endLottery",
      "outputs": [],
      "stateMutability": "nonpayable",
      "type": "function"
    },
    {
      "inputs": [],
      "name": "claimMyPrizes",
      "outputs": [],
      "stateMutability": "nonpayable",
      "type": "function"
    },
    {
      "inputs": [],
      "name": "getMyTickets",
      "outputs": [
        {
          "internalType": "uint256[]",
          "name": "",
          "type": "uint256[]"
        }
      ],
      "stateMutability": "view",
      "type": "function",
      "constant": true
    },
    {
      "inputs": [],
      "name": "withdrawMoney",
      "outputs": [],
      "stateMutability": "nonpayable",
      "type": "function"
    },
    {
      "inputs": [
        {
          "internalType": "address",
          "name": "account",
          "type": "address"
        }
      ],
      "name": "checkTokenBalance",
      "outputs": [
        {
          "internalType": "uint256",
          "name": "",
          "type": "uint256"
        }
      ],
      "stateMutability": "view",
      "type": "function",
      "constant": true
    },
    {
      "inputs": [
        {
          "internalType": "address",
          "name": "tokenOwner",
          "type": "address"
        },
        {
          "internalType": "address",
          "name": "spender",
          "type": "address"
        }
      ],
      "name": "checkTokenAllowance",
      "outputs": [
        {
          "internalType": "uint256",
          "name": "",
          "type": "uint256"
        }
      ],
      "stateMutability": "view",
      "type": "function",
      "constant": true
    }
  ],
  "bytecode": "0x60c06040526040516200534e3803806200534e8339818101604052810190620000299190620004f9565b83836040518060400160405280600d81526020017f4c6f74746572795469636b6574000000000000000000000000000000000000008152506040518060400160405280600381526020017f54495800000000000000000000000000000000000000000000000000000000008152508160009080519060200190620000af929190620003ef565b508060019080519060200190620000c8929190620003ef565b5050508173ffffffffffffffffffffffffffffffffffffffff1660a08173ffffffffffffffffffffffffffffffffffffffff1660601b815250508073ffffffffffffffffffffffffffffffffffffffff1660808173ffffffffffffffffffffffffffffffffffffffff1660601b81525050505060006200014d620003e760201b60201c565b905080600760006101000a81548173ffffffffffffffffffffffffffffffffffffffff021916908373ffffffffffffffffffffffffffffffffffffffff1602179055508073ffffffffffffffffffffffffffffffffffffffff16600073ffffffffffffffffffffffffffffffffffffffff167f8be0079c531659141344cd1fd0a4f28419497f9722a3daafe3b4186f6b6457e060405160405180910390a35081600860006101000a81548173ffffffffffffffffffffffffffffffffffffffff021916908373ffffffffffffffffffffffffffffffffffffffff160217905550600860009054906101000a900473ffffffffffffffffffffffffffffffffffffffff1673ffffffffffffffffffffffffffffffffffffffff166321f8a7216040518163ffffffff1660e01b81526004016200028890620005b2565b60206040518083038186803b158015620002a157600080fd5b505afa158015620002b6573d6000803e3d6000fd5b505050506040513d601f19601f82011682018060405250810190620002dc9190620004cd565b600960006101000a81548173ffffffffffffffffffffffffffffffffffffffff021916908373ffffffffffffffffffffffffffffffffffffffff160217905550600073ffffffffffffffffffffffffffffffffffffffff16600960009054906101000a900473ffffffffffffffffffffffffffffffffffffffff1673ffffffffffffffffffffffffffffffffffffffff161415620003b1576040517f08c379a0000000000000000000000000000000000000000000000000000000008152600401620003a890620005cd565b60405180910390fd5b8060108190555067016345785d8a000060118190555061025842620003d7919062000600565b600d8190555050505050620007bc565b600033905090565b828054620003fd90620006a5565b90600052602060002090601f0160209004810192826200042157600085556200046d565b82601f106200043c57805160ff19168380011785556200046d565b828001600101855582156200046d579182015b828111156200046c5782518255916020019190600101906200044f565b5b5090506200047c919062000480565b5090565b5b808211156200049b57600081600090555060010162000481565b5090565b600081519050620004b08162000788565b92915050565b600081519050620004c781620007a2565b92915050565b600060208284031215620004e057600080fd5b6000620004f0848285016200049f565b91505092915050565b600080600080608085870312156200051057600080fd5b600062000520878288016200049f565b945050602062000533878288016200049f565b935050604062000546878288016200049f565b92505060606200055987828801620004b6565b91505092959194509250565b7f50726f7879455243323073555344000000000000000000000000000000000000815250565b60006200059a602783620005ef565b9150620005a78262000739565b604082019050919050565b6000602082019050620005c86000830162000565565b919050565b60006020820190508181036000830152620005e8816200058b565b9050919050565b600082825260208201905092915050565b60006200060d826200069b565b91506200061a836200069b565b9250827fffffffffffffffffffffffffffffffffffffffffffffffffffffffffffffffff03821115620006525762000651620006db565b5b828201905092915050565b60006200066a826200067b565b9050919050565b6000819050919050565b600073ffffffffffffffffffffffffffffffffffffffff82169050919050565b6000819050919050565b60006002820490506001821680620006be57607f821691505b60208210811415620006d557620006d46200070a565b5b50919050565b7f4e487b7100000000000000000000000000000000000000000000000000000000600052601160045260246000fd5b7f4e487b7100000000000000000000000000000000000000000000000000000000600052602260045260246000fd5b7f73555344206973206d697373696e672066726f6d2053796e746865746978207260008201527f65736f6c76657200000000000000000000000000000000000000000000000000602082015250565b62000793816200065d565b81146200079f57600080fd5b50565b620007ad8162000671565b8114620007b957600080fd5b50565b60805160601c60a05160601c614b58620007f66000396000818161134001526126a5015260008181611fd101526126690152614b586000f3fe6080604052600436106102035760003560e01c80638da5cb5b11610118578063c557af8b116100a0578063e1d10d851161006f578063e1d10d8514610737578063e985e9c514610762578063efbe1c1c1461079f578063f2fde38b146107ca578063f9f0164a146107f357610203565b8063c557af8b1461067b578063c87b56dd14610692578063d7edcaf5146106cf578063da83c8f3146106fa57610203565b8063a22cb465116100e7578063a22cb465146105bc578063a636179b146105e5578063a8e4b17d14610610578063ac4460021461063b578063b88d4fde1461065257610203565b80638da5cb5b1461051257806394985ddd1461053d57806395d89b41146105665780639bc7b4c41461059157610203565b8063153cd7161161019b57806342842e0e1161016a57806342842e0e1461041b578063533d172c146104445780636352211e1461048157806370a08231146104be578063715018a6146104fb57610203565b8063153cd716146103945780631593a8c7146103bf57806323b872dd146103d65780632f366637146103ff57610203565b8063095ea7b3116101d7578063095ea7b3146102d85780630fb5a6b4146103015780631209b1f61461032c578063126cbe601461035757610203565b80626d6cae1461020857806301ffc9a71461023357806306fdde0314610270578063081812fc1461029b575b600080fd5b34801561021457600080fd5b5061021d61081e565b60405161022a9190613c49565b60405180910390f35b34801561023f57600080fd5b5061025a60048036038101906102559190613547565b610824565b6040516102679190613c2e565b60405180910390f35b34801561027c57600080fd5b50610285610906565b6040516102929190613ced565b60405180910390f35b3480156102a757600080fd5b506102c260048036038101906102bd9190613599565b610998565b6040516102cf9190613ade565b60405180910390f35b3480156102e457600080fd5b506102ff60048036038101906102fa91906134a6565b610a1d565b005b34801561030d57600080fd5b50610316610b35565b6040516103239190613fcf565b60405180910390f35b34801561033857600080fd5b50610341610b3b565b60405161034e9190613fcf565b60405180910390f35b34801561036357600080fd5b5061037e6004803603810190610379919061333b565b610b40565b60405161038b9190613fcf565b60405180910390f35b3480156103a057600080fd5b506103a9610bf4565b6040516103b69190613cd2565b60405180910390f35b3480156103cb57600080fd5b506103d4610c1a565b005b3480156103e257600080fd5b506103fd60048036038101906103f891906133a0565b610cd2565b005b61041960048036038101906104149190613599565b610d32565b005b34801561042757600080fd5b50610442600480360381019061043d91906133a0565b610f96565b005b34801561045057600080fd5b5061046b60048036038101906104669190613364565b610fb6565b6040516104789190613fcf565b60405180910390f35b34801561048d57600080fd5b506104a860048036038101906104a39190613599565b61106d565b6040516104b59190613ade565b60405180910390f35b3480156104ca57600080fd5b506104e560048036038101906104e0919061333b565b61111f565b6040516104f29190613fcf565b60405180910390f35b34801561050757600080fd5b506105106111d7565b005b34801561051e57600080fd5b50610527611314565b6040516105349190613ade565b60405180910390f35b34801561054957600080fd5b50610564600480360381019061055f919061350b565b61133e565b005b34801561057257600080fd5b5061057b6113da565b6040516105889190613ced565b60405180910390f35b34801561059d57600080fd5b506105a661146c565b6040516105b39190613fcf565b60405180910390f35b3480156105c857600080fd5b506105e360048036038101906105de919061346a565b611472565b005b3480156105f157600080fd5b506105fa6115f3565b6040516106079190613fcf565b60405180910390f35b34801561061c57600080fd5b506106256115f9565b6040516106329190613ade565b60405180910390f35b34801561064757600080fd5b5061065061161f565b005b34801561065e57600080fd5b50610679600480360381019061067491906133ef565b611757565b005b34801561068757600080fd5b506106906117b9565b005b34801561069e57600080fd5b506106b960048036038101906106b49190613599565b611959565b6040516106c69190613ced565b60405180910390f35b3480156106db57600080fd5b506106e4611a00565b6040516106f19190613fcf565b60405180910390f35b34801561070657600080fd5b50610721600480360381019061071c9190613599565b611a06565b60405161072e9190613fcf565b60405180910390f35b34801561074357600080fd5b5061074c611a1e565b6040516107599190613c0c565b60405180910390f35b34801561076e57600080fd5b5061078960048036038101906107849190613364565b611be7565b6040516107969190613c2e565b60405180910390f35b3480156107ab57600080fd5b506107b4611c7b565b6040516107c19190613fcf565b60405180910390f35b3480156107d657600080fd5b506107f160048036038101906107ec919061333b565b611c81565b005b3480156107ff57600080fd5b50610808611e2d565b6040516108159190613fcf565b60405180910390f35b600f5481565b60007f80ac58cd000000000000000000000000000000000000000000000000000000007bffffffffffffffffffffffffffffffffffffffffffffffffffffffff1916827bffffffffffffffffffffffffffffffffffffffffffffffffffffffff191614806108ef57507f5b5e139f000000000000000000000000000000000000000000000000000000007bffffffffffffffffffffffffffffffffffffffffffffffffffffffff1916827bffffffffffffffffffffffffffffffffffffffffffffffffffffffff1916145b806108ff57506108fe82611e33565b5b9050919050565b60606000805461091590614331565b80601f016020809104026020016040519081016040528092919081815260200182805461094190614331565b801561098e5780601f106109635761010080835404028352916020019161098e565b820191906000526020600020905b81548152906001019060200180831161097157829003601f168201915b5050505050905090565b60006109a382611e9d565b6109e2576040517f08c379a00000000000000000000000000000000000000000000000000000000081526004016109d990613ecf565b60405180910390fd5b6004600083815260200190815260200160002060009054906101000a900473ffffffffffffffffffffffffffffffffffffffff169050919050565b6000610a288261106d565b90508073ffffffffffffffffffffffffffffffffffffffff168373ffffffffffffffffffffffffffffffffffffffff161415610a99576040517f08c379a0000000000000000000000000000000000000000000000000000000008152600401610a9090613f6f565b60405180910390fd5b8073ffffffffffffffffffffffffffffffffffffffff16610ab8611f09565b73ffffffffffffffffffffffffffffffffffffffff161480610ae75750610ae681610ae1611f09565b611be7565b5b610b26576040517f08c379a0000000000000000000000000000000000000000000000000000000008152600401610b1d90613e2f565b60405180910390fd5b610b308383611f11565b505050565b61025881565b600581565b6000600960009054906101000a900473ffffffffffffffffffffffffffffffffffffffff1673ffffffffffffffffffffffffffffffffffffffff166370a08231836040518263ffffffff1660e01b8152600401610b9d9190613ade565b60206040518083038186803b158015610bb557600080fd5b505afa158015610bc9573d6000803e3d6000fd5b505050506040513d601f19601f82011682018060405250810190610bed91906135c2565b9050919050565b600860009054906101000a900473ffffffffffffffffffffffffffffffffffffffff1681565b42600d5410610c5e576040517f08c379a0000000000000000000000000000000000000000000000000000000008152600401610c5590613e8f565b60405180910390fd5b600b54600c8190555061025842610c75919061410e565b600d81905550600a54600b81905550610c8d42611fca565b600f819055507f199997e69d26ca150e8779dcb3a0e21b8e257b4fdb13aa25764d3f7efabd67bf600c54600f54604051610cc8929190613fea565b60405180910390a1565b610ce3610cdd611f09565b826120cf565b610d22576040517f08c379a0000000000000000000000000000000000000000000000000000000008152600401610d1990613f8f565b60405180910390fd5b610d2d8383836121ad565b505050565b42600d541015610d4557610d44610c1a565b5b6000816005610d549190614195565b905080610d6033610b40565b1015610da1576040517f08c379a0000000000000000000000000000000000000000000000000000000008152600401610d9890613e0f565b60405180910390fd5b600960009054906101000a900473ffffffffffffffffffffffffffffffffffffffff1673ffffffffffffffffffffffffffffffffffffffff1663095ea7b330836040518363ffffffff1660e01b8152600401610dfe929190613ba5565b602060405180830381600087803b158015610e1857600080fd5b505af1158015610e2c573d6000803e3d6000fd5b505050506040513d601f19601f82011682018060405250810190610e5091906134e2565b5080610e5c3330610fb6565b1015610e9d576040517f08c379a0000000000000000000000000000000000000000000000000000000008152600401610e9490613faf565b60405180910390fd5b600960009054906101000a900473ffffffffffffffffffffffffffffffffffffffff1673ffffffffffffffffffffffffffffffffffffffff166323b872dd3330846040518463ffffffff1660e01b8152600401610efc93929190613b22565b602060405180830381600087803b158015610f1657600080fd5b505af1158015610f2a573d6000803e3d6000fd5b505050506040513d601f19601f82011682018060405250810190610f4e91906134e2565b5060005b82811015610f9157600a6000815480929190610f6d90614394565b9190505550610f7e33600a54612409565b8080610f8990614394565b915050610f52565b505050565b610fb183838360405180602001604052806000815250611757565b505050565b6000600960009054906101000a900473ffffffffffffffffffffffffffffffffffffffff1673ffffffffffffffffffffffffffffffffffffffff1663dd62ed3e84846040518363ffffffff1660e01b8152600401611015929190613af9565b60206040518083038186803b15801561102d57600080fd5b505afa158015611041573d6000803e3d6000fd5b505050506040513d601f19601f8201168201806040525081019061106591906135c2565b905092915050565b6000806002600084815260200190815260200160002060009054906101000a900473ffffffffffffffffffffffffffffffffffffffff169050600073ffffffffffffffffffffffffffffffffffffffff168173ffffffffffffffffffffffffffffffffffffffff161415611116576040517f08c379a000000000000000000000000000000000000000000000000000000000815260040161110d90613e6f565b60405180910390fd5b80915050919050565b60008073ffffffffffffffffffffffffffffffffffffffff168273ffffffffffffffffffffffffffffffffffffffff161415611190576040517f08c379a000000000000000000000000000000000000000000000000000000000815260040161118790613e4f565b60405180910390fd5b600360008373ffffffffffffffffffffffffffffffffffffffff1673ffffffffffffffffffffffffffffffffffffffff168152602001908152602001600020549050919050565b6111df611f09565b73ffffffffffffffffffffffffffffffffffffffff166111fd611314565b73ffffffffffffffffffffffffffffffffffffffff1614611253576040517f08c379a000000000000000000000000000000000000000000000000000000000815260040161124a90613eef565b60405180910390fd5b600073ffffffffffffffffffffffffffffffffffffffff16600760009054906101000a900473ffffffffffffffffffffffffffffffffffffffff1673ffffffffffffffffffffffffffffffffffffffff167f8be0079c531659141344cd1fd0a4f28419497f9722a3daafe3b4186f6b6457e060405160405180910390a36000600760006101000a81548173ffffffffffffffffffffffffffffffffffffffff021916908373ffffffffffffffffffffffffffffffffffffffff160217905550565b6000600760009054906101000a900473ffffffffffffffffffffffffffffffffffffffff16905090565b7f000000000000000000000000000000000000000000000000000000000000000073ffffffffffffffffffffffffffffffffffffffff163373ffffffffffffffffffffffffffffffffffffffff16146113cc576040517f08c379a00000000000000000000000000000000000000000000000000000000081526004016113c390613f4f565b60405180910390fd5b6113d68282612427565b5050565b6060600180546113e990614331565b80601f016020809104026020016040519081016040528092919081815260200182805461141590614331565b80156114625780601f1061143757610100808354040283529160200191611462565b820191906000526020600020905b81548152906001019060200180831161144557829003601f168201915b5050505050905090565b600c5481565b61147a611f09565b73ffffffffffffffffffffffffffffffffffffffff168273ffffffffffffffffffffffffffffffffffffffff1614156114e8576040517f08c379a00000000000000000000000000000000000000000000000000000000081526004016114df90613daf565b60405180910390fd5b80600560006114f5611f09565b73ffffffffffffffffffffffffffffffffffffffff1673ffffffffffffffffffffffffffffffffffffffff16815260200190815260200160002060008473ffffffffffffffffffffffffffffffffffffffff1673ffffffffffffffffffffffffffffffffffffffff16815260200190815260200160002060006101000a81548160ff0219169083151502179055508173ffffffffffffffffffffffffffffffffffffffff166115a2611f09565b73ffffffffffffffffffffffffffffffffffffffff167f17307eab39ab6107e8899845ad3d59bd9653f200f220920489ca2b5937696c31836040516115e79190613c2e565b60405180910390a35050565b600b5481565b600960009054906101000a900473ffffffffffffffffffffffffffffffffffffffff1681565b611627611f09565b73ffffffffffffffffffffffffffffffffffffffff16611645611314565b73ffffffffffffffffffffffffffffffffffffffff161461169b576040517f08c379a000000000000000000000000000000000000000000000000000000000815260040161169290613eef565b60405180910390fd5b600960009054906101000a900473ffffffffffffffffffffffffffffffffffffffff1673ffffffffffffffffffffffffffffffffffffffff1663a9059cbb33600e546040518363ffffffff1660e01b81526004016116fa929190613ba5565b602060405180830381600087803b15801561171457600080fd5b505af1158015611728573d6000803e3d6000fd5b505050506040513d601f19601f8201168201806040525081019061174c91906134e2565b506000600e81905550565b611768611762611f09565b836120cf565b6117a7576040517f08c379a000000000000000000000000000000000000000000000000000000000815260040161179e90613f8f565b60405180910390fd5b6117b384848484612445565b50505050565b60006117c43361111f565b905060008111611809576040517f08c379a000000000000000000000000000000000000000000000000000000000815260040161180090613d6f565b60405180910390fd5b600080600190505b600a5481116118a4573373ffffffffffffffffffffffffffffffffffffffff1661183a8261106d565b73ffffffffffffffffffffffffffffffffffffffff16141561189157601260008281526020019081526020016000205482611875919061410e565b9150600060126000838152602001908152602001600020819055505b808061189c90614394565b915050611811565b50600960009054906101000a900473ffffffffffffffffffffffffffffffffffffffff1673ffffffffffffffffffffffffffffffffffffffff1663a9059cbb33836040518363ffffffff1660e01b8152600401611902929190613ba5565b602060405180830381600087803b15801561191c57600080fd5b505af1158015611930573d6000803e3d6000fd5b505050506040513d601f19601f8201168201806040525081019061195491906134e2565b505050565b606061196482611e9d565b6119a3576040517f08c379a000000000000000000000000000000000000000000000000000000000815260040161199a90613f2f565b60405180910390fd5b60006119ad6124a1565b905060008151116119cd57604051806020016040528060008152506119f8565b806119d7846124b8565b6040516020016119e8929190613aba565b6040516020818303038152906040525b915050919050565b600e5481565b60126020528060005260406000206000915090505481565b60606000611a2b3361111f565b90506000811415611aae57600067ffffffffffffffff811115611a77577f4e487b7100000000000000000000000000000000000000000000000000000000600052604160045260246000fd5b604051908082528060200260200182016040528015611aa55781602001602082028036833780820191505090505b50915050611be4565b60008167ffffffffffffffff811115611af0577f4e487b7100000000000000000000000000000000000000000000000000000000600052604160045260246000fd5b604051908082528060200260200182016040528015611b1e5781602001602082028036833780820191505090505b5090506000600a549050600080600190505b828111611bdb573373ffffffffffffffffffffffffffffffffffffffff16611b578261106d565b73ffffffffffffffffffffffffffffffffffffffff161415611bc85780848381518110611bad577f4e487b7100000000000000000000000000000000000000000000000000000000600052603260045260246000fd5b6020026020010181815250508180611bc490614394565b9250505b8080611bd390614394565b915050611b30565b50829450505050505b90565b6000600560008473ffffffffffffffffffffffffffffffffffffffff1673ffffffffffffffffffffffffffffffffffffffff16815260200190815260200160002060008373ffffffffffffffffffffffffffffffffffffffff1673ffffffffffffffffffffffffffffffffffffffff16815260200190815260200160002060009054906101000a900460ff16905092915050565b600d5481565b611c89611f09565b73ffffffffffffffffffffffffffffffffffffffff16611ca7611314565b73ffffffffffffffffffffffffffffffffffffffff1614611cfd576040517f08c379a0000000000000000000000000000000000000000000000000000000008152600401611cf490613eef565b60405180910390fd5b600073ffffffffffffffffffffffffffffffffffffffff168173ffffffffffffffffffffffffffffffffffffffff161415611d6d576040517f08c379a0000000000000000000000000000000000000000000000000000000008152600401611d6490613d2f565b60405180910390fd5b8073ffffffffffffffffffffffffffffffffffffffff16600760009054906101000a900473ffffffffffffffffffffffffffffffffffffffff1673ffffffffffffffffffffffffffffffffffffffff167f8be0079c531659141344cd1fd0a4f28419497f9722a3daafe3b4186f6b6457e060405160405180910390a380600760006101000a81548173ffffffffffffffffffffffffffffffffffffffff021916908373ffffffffffffffffffffffffffffffffffffffff16021790555050565b600a5481565b60007f01ffc9a7000000000000000000000000000000000000000000000000000000007bffffffffffffffffffffffffffffffffffffffffffffffffffffffff1916827bffffffffffffffffffffffffffffffffffffffffffffffffffffffff1916149050919050565b60008073ffffffffffffffffffffffffffffffffffffffff166002600084815260200190815260200160002060009054906101000a900473ffffffffffffffffffffffffffffffffffffffff1673ffffffffffffffffffffffffffffffffffffffff1614159050919050565b600033905090565b816004600083815260200190815260200160002060006101000a81548173ffffffffffffffffffffffffffffffffffffffff021916908373ffffffffffffffffffffffffffffffffffffffff160217905550808273ffffffffffffffffffffffffffffffffffffffff16611f848361106d565b73ffffffffffffffffffffffffffffffffffffffff167f8c5be1e5ebec7d5bd14f71427d1e84f3dd0314c0f7b2291e5b200ac8c7c3b92560405160405180910390a45050565b60006011547f000000000000000000000000000000000000000000000000000000000000000073ffffffffffffffffffffffffffffffffffffffff166370a08231306040518263ffffffff1660e01b81526004016120289190613ade565b60206040518083038186803b15801561204057600080fd5b505afa158015612054573d6000803e3d6000fd5b505050506040513d601f19601f8201168201806040525081019061207891906135c2565b10156120b9576040517f08c379a00000000000000000000000000000000000000000000000000000000081526004016120b090613dcf565b60405180910390fd5b6120c860105460115484612665565b9050919050565b60006120da82611e9d565b612119576040517f08c379a000000000000000000000000000000000000000000000000000000000815260040161211090613def565b60405180910390fd5b60006121248361106d565b90508073ffffffffffffffffffffffffffffffffffffffff168473ffffffffffffffffffffffffffffffffffffffff16148061219357508373ffffffffffffffffffffffffffffffffffffffff1661217b84610998565b73ffffffffffffffffffffffffffffffffffffffff16145b806121a457506121a38185611be7565b5b91505092915050565b8273ffffffffffffffffffffffffffffffffffffffff166121cd8261106d565b73ffffffffffffffffffffffffffffffffffffffff1614612223576040517f08c379a000000000000000000000000000000000000000000000000000000000815260040161221a90613f0f565b60405180910390fd5b600073ffffffffffffffffffffffffffffffffffffffff168273ffffffffffffffffffffffffffffffffffffffff161415612293576040517f08c379a000000000000000000000000000000000000000000000000000000000815260040161228a90613d8f565b60405180910390fd5b61229e8383836127c6565b6122a9600082611f11565b6001600360008573ffffffffffffffffffffffffffffffffffffffff1673ffffffffffffffffffffffffffffffffffffffff16815260200190815260200160002060008282546122f991906141ef565b925050819055506001600360008473ffffffffffffffffffffffffffffffffffffffff1673ffffffffffffffffffffffffffffffffffffffff1681526020019081526020016000206000828254612350919061410e565b92505081905550816002600083815260200190815260200160002060006101000a81548173ffffffffffffffffffffffffffffffffffffffff021916908373ffffffffffffffffffffffffffffffffffffffff160217905550808273ffffffffffffffffffffffffffffffffffffffff168473ffffffffffffffffffffffffffffffffffffffff167fddf252ad1be2c89b69c2b068fc378daa952ba7f163c4a11628f55a4df523b3ef60405160405180910390a4505050565b6124238282604051806020016040528060008152506127cb565b5050565b612436600c54600b5483612826565b506000801b600f819055505050565b6124508484846121ad565b61245c84848484612dca565b61249b576040517f08c379a000000000000000000000000000000000000000000000000000000000815260040161249290613d0f565b60405180910390fd5b50505050565b606060405180602001604052806000815250905090565b60606000821415612500576040518060400160405280600181526020017f30000000000000000000000000000000000000000000000000000000000000008152509050612660565b600082905060005b6000821461253257808061251b90614394565b915050600a8261252b9190614164565b9150612508565b60008167ffffffffffffffff811115612574577f4e487b7100000000000000000000000000000000000000000000000000000000600052604160045260246000fd5b6040519080825280601f01601f1916602001820160405280156125a65781602001600182028036833780820191505090505b5090505b60008514612659576001826125bf91906141ef565b9150600a856125ce91906143f1565b60306125da919061410e565b60f81b818381518110612616577f4e487b7100000000000000000000000000000000000000000000000000000000600052603260045260246000fd5b60200101907effffffffffffffffffffffffffffffffffffffffffffffffffffffffffffff1916908160001a905350600a856126529190614164565b94506125aa565b8093505050505b919050565b60007f000000000000000000000000000000000000000000000000000000000000000073ffffffffffffffffffffffffffffffffffffffff16634000aea07f00000000000000000000000000000000000000000000000000000000000000008587866040516020016126d8929190613c64565b6040516020818303038152906040526040518463ffffffff1660e01b815260040161270593929190613bce565b602060405180830381600087803b15801561271f57600080fd5b505af1158015612733573d6000803e3d6000fd5b505050506040513d601f19601f8201168201806040525081019061275791906134e2565b506000612779858430600660008a815260200190815260200160002054612f61565b90506001600660008781526020019081526020016000205461279b919061410e565b60066000878152602001908152602001600020819055506127bc8582612f9d565b9150509392505050565b505050565b6127d58383612fd0565b6127e26000848484612dca565b612821576040517f08c379a000000000000000000000000000000000000000000000000000000000815260040161281890613d0f565b60405180910390fd5b505050565b6000806000858561283791906141ef565b67ffffffffffffffff811115612876577f4e487b7100000000000000000000000000000000000000000000000000000000600052604160045260246000fd5b6040519080825280602002602001820160405280156128a45781602001602082028036833780820191505090505b50905060008592505b8683111561291c57828282815181106128ef577f4e487b7100000000000000000000000000000000000000000000000000000000600052603260045260246000fd5b602002602001018181525050808061290690614394565b915050828061291490614307565b9350506128ad565b60006005835161292c9190614195565b9050612936613209565b60008451141561294e57600195505050505050612dc3565b600184511415612986576040518060600160405280606460ff168152602001600060ff168152602001600060ff1681525090506129f3565b6002845114156129be576040518060600160405280603260ff168152602001603260ff168152602001600060ff1681525090506129f2565b60038451106129f1576040518060600160405280603260ff168152602001602360ff168152602001600f60ff1681525090505b5b5b600080600096505b6003871015612d84576000838860038110612a3f577f4e487b7100000000000000000000000000000000000000000000000000000000600052603260045260246000fd5b602002015160ff161115612d7157612a8c86518a89604051602001612a65929190614013565b6040516020818303038152906040528051906020012060001c61319e90919063ffffffff16565b9150612af46064612ae6858a60038110612acf577f4e487b7100000000000000000000000000000000000000000000000000000000600052603260045260246000fd5b602002015160ff16876131b490919063ffffffff16565b6131ca90919063ffffffff16565b60126000888581518110612b31577f4e487b7100000000000000000000000000000000000000000000000000000000600052603260045260246000fd5b602002602001015181526020019081526020016000208190555060126000878481518110612b88577f4e487b7100000000000000000000000000000000000000000000000000000000600052603260045260246000fd5b602002602001015181526020019081526020016000205481612baa919061410e565b9050600286511180612bdd575060028651148015612bdc5750612bd8600187516131e090919063ffffffff16565b8214155b5b15612d1f57858281518110612c1b577f4e487b7100000000000000000000000000000000000000000000000000000000600052603260045260246000fd5b60200260200101600081525085612c3d600188516131e090919063ffffffff16565b81518110612c74577f4e487b7100000000000000000000000000000000000000000000000000000000600052603260045260246000fd5b6020026020010151868381518110612cb5577f4e487b7100000000000000000000000000000000000000000000000000000000600052603260045260246000fd5b60200260200101818152505085612cd7600188516131e090919063ffffffff16565b81518110612d0e577f4e487b7100000000000000000000000000000000000000000000000000000000600052603260045260246000fd5b602002602001016000815250612d70565b600286511415612d6f57858281518110612d62577f4e487b7100000000000000000000000000000000000000000000000000000000600052603260045260246000fd5b6020026020010160008152505b5b5b8680612d7c90614394565b9750506129fb565b838114612db757612d9e81856131e090919063ffffffff16565b600e6000828254612daf919061410e565b925050819055505b60019750505050505050505b9392505050565b6000612deb8473ffffffffffffffffffffffffffffffffffffffff166131f6565b15612f54578373ffffffffffffffffffffffffffffffffffffffff1663150b7a02612e14611f09565b8786866040518563ffffffff1660e01b8152600401612e369493929190613b59565b602060405180830381600087803b158015612e5057600080fd5b505af1925050508015612e8157506040513d601f19601f82011682018060405250810190612e7e9190613570565b60015b612f04573d8060008114612eb1576040519150601f19603f3d011682016040523d82523d6000602084013e612eb6565b606091505b50600081511415612efc576040517f08c379a0000000000000000000000000000000000000000000000000000000008152600401612ef390613d0f565b60405180910390fd5b805181602001fd5b63150b7a0260e01b7bffffffffffffffffffffffffffffffffffffffffffffffffffffffff1916817bffffffffffffffffffffffffffffffffffffffffffffffffffffffff191614915050612f59565b600190505b949350505050565b600084848484604051602001612f7a9493929190613c8d565b6040516020818303038152906040528051906020012060001c9050949350505050565b60008282604051602001612fb2929190613a8e565b60405160208183030381529060405280519060200120905092915050565b600073ffffffffffffffffffffffffffffffffffffffff168273ffffffffffffffffffffffffffffffffffffffff161415613040576040517f08c379a000000000000000000000000000000000000000000000000000000000815260040161303790613eaf565b60405180910390fd5b61304981611e9d565b15613089576040517f08c379a000000000000000000000000000000000000000000000000000000000815260040161308090613d4f565b60405180910390fd5b613095600083836127c6565b6001600360008473ffffffffffffffffffffffffffffffffffffffff1673ffffffffffffffffffffffffffffffffffffffff16815260200190815260200160002060008282546130e5919061410e565b92505081905550816002600083815260200190815260200160002060006101000a81548173ffffffffffffffffffffffffffffffffffffffff021916908373ffffffffffffffffffffffffffffffffffffffff160217905550808273ffffffffffffffffffffffffffffffffffffffff16600073ffffffffffffffffffffffffffffffffffffffff167fddf252ad1be2c89b69c2b068fc378daa952ba7f163c4a11628f55a4df523b3ef60405160405180910390a45050565b600081836131ac91906143f1565b905092915050565b600081836131c29190614195565b905092915050565b600081836131d89190614164565b905092915050565b600081836131ee91906141ef565b905092915050565b600080823b905060008111915050919050565b6040518060600160405280600390602082028036833780820191505090505090565b600061323e61323984614061565b61403c565b90508281526020810184848401111561325657600080fd5b6132618482856142c5565b509392505050565b60008135905061327881614aaf565b92915050565b60008135905061328d81614ac6565b92915050565b6000815190506132a281614ac6565b92915050565b6000813590506132b781614add565b92915050565b6000813590506132cc81614af4565b92915050565b6000815190506132e181614af4565b92915050565b600082601f8301126132f857600080fd5b813561330884826020860161322b565b91505092915050565b60008135905061332081614b0b565b92915050565b60008151905061333581614b0b565b92915050565b60006020828403121561334d57600080fd5b600061335b84828501613269565b91505092915050565b6000806040838503121561337757600080fd5b600061338585828601613269565b925050602061339685828601613269565b9150509250929050565b6000806000606084860312156133b557600080fd5b60006133c386828701613269565b93505060206133d486828701613269565b92505060406133e586828701613311565b9150509250925092565b6000806000806080858703121561340557600080fd5b600061341387828801613269565b945050602061342487828801613269565b935050604061343587828801613311565b925050606085013567ffffffffffffffff81111561345257600080fd5b61345e878288016132e7565b91505092959194509250565b6000806040838503121561347d57600080fd5b600061348b85828601613269565b925050602061349c8582860161327e565b9150509250929050565b600080604083850312156134b957600080fd5b60006134c785828601613269565b92505060206134d885828601613311565b9150509250929050565b6000602082840312156134f457600080fd5b600061350284828501613293565b91505092915050565b6000806040838503121561351e57600080fd5b600061352c858286016132a8565b925050602061353d85828601613311565b9150509250929050565b60006020828403121561355957600080fd5b6000613567848285016132bd565b91505092915050565b60006020828403121561358257600080fd5b6000613590848285016132d2565b91505092915050565b6000602082840312156135ab57600080fd5b60006135b984828501613311565b91505092915050565b6000602082840312156135d457600080fd5b60006135e284828501613326565b91505092915050565b60006135f78383613a59565b60208301905092915050565b61360c81614223565b82525050565b600061361d826140a2565b61362781856140d0565b935061363283614092565b8060005b8381101561366357815161364a88826135eb565b9750613655836140c3565b925050600181019050613636565b5085935050505092915050565b61367981614235565b82525050565b61368881614241565b82525050565b61369f61369a82614241565b6143dd565b82525050565b60006136b0826140ad565b6136ba81856140e1565b93506136ca8185602086016142d4565b6136d3816144de565b840191505092915050565b6136e7816142a1565b82525050565b60006136f8826140b8565b61370281856140f2565b93506137128185602086016142d4565b61371b816144de565b840191505092915050565b6000613731826140b8565b61373b8185614103565b935061374b8185602086016142d4565b80840191505092915050565b60006137646032836140f2565b915061376f826144ef565b604082019050919050565b60006137876026836140f2565b91506137928261453e565b604082019050919050565b60006137aa601c836140f2565b91506137b58261458d565b602082019050919050565b60006137cd601b836140f2565b91506137d8826145b6565b602082019050919050565b60006137f06024836140f2565b91506137fb826145df565b604082019050919050565b60006138136019836140f2565b915061381e8261462e565b602082019050919050565b6000613836602b836140f2565b915061384182614657565b604082019050919050565b6000613859602c836140f2565b9150613864826146a6565b604082019050919050565b600061387c6032836140f2565b9150613887826146f5565b604082019050919050565b600061389f6038836140f2565b91506138aa82614744565b604082019050919050565b60006138c2602a836140f2565b91506138cd82614793565b604082019050919050565b60006138e56029836140f2565b91506138f0826147e2565b604082019050919050565b6000613908601a836140f2565b915061391382614831565b602082019050919050565b600061392b6020836140f2565b91506139368261485a565b602082019050919050565b600061394e602c836140f2565b915061395982614883565b604082019050919050565b60006139716020836140f2565b915061397c826148d2565b602082019050919050565b60006139946029836140f2565b915061399f826148fb565b604082019050919050565b60006139b7602f836140f2565b91506139c28261494a565b604082019050919050565b60006139da601f836140f2565b91506139e582614999565b602082019050919050565b60006139fd6021836140f2565b9150613a08826149c2565b604082019050919050565b6000613a206031836140f2565b9150613a2b82614a11565b604082019050919050565b6000613a436035836140f2565b9150613a4e82614a60565b604082019050919050565b613a6281614297565b82525050565b613a7181614297565b82525050565b613a88613a8382614297565b6143e7565b82525050565b6000613a9a828561368e565b602082019150613aaa8284613a77565b6020820191508190509392505050565b6000613ac68285613726565b9150613ad28284613726565b91508190509392505050565b6000602082019050613af36000830184613603565b92915050565b6000604082019050613b0e6000830185613603565b613b1b6020830184613603565b9392505050565b6000606082019050613b376000830186613603565b613b446020830185613603565b613b516040830184613a68565b949350505050565b6000608082019050613b6e6000830187613603565b613b7b6020830186613603565b613b886040830185613a68565b8181036060830152613b9a81846136a5565b905095945050505050565b6000604082019050613bba6000830185613603565b613bc76020830184613a68565b9392505050565b6000606082019050613be36000830186613603565b613bf06020830185613a68565b8181036040830152613c0281846136a5565b9050949350505050565b60006020820190508181036000830152613c268184613612565b905092915050565b6000602082019050613c436000830184613670565b92915050565b6000602082019050613c5e600083018461367f565b92915050565b6000604082019050613c79600083018561367f565b613c866020830184613a68565b9392505050565b6000608082019050613ca2600083018761367f565b613caf6020830186613a68565b613cbc6040830185613603565b613cc96060830184613a68565b95945050505050565b6000602082019050613ce760008301846136de565b92915050565b60006020820190508181036000830152613d0781846136ed565b905092915050565b60006020820190508181036000830152613d2881613757565b9050919050565b60006020820190508181036000830152613d488161377a565b9050919050565b60006020820190508181036000830152613d688161379d565b9050919050565b60006020820190508181036000830152613d88816137c0565b9050919050565b60006020820190508181036000830152613da8816137e3565b9050919050565b60006020820190508181036000830152613dc881613806565b9050919050565b60006020820190508181036000830152613de881613829565b9050919050565b60006020820190508181036000830152613e088161384c565b9050919050565b60006020820190508181036000830152613e288161386f565b9050919050565b60006020820190508181036000830152613e4881613892565b9050919050565b60006020820190508181036000830152613e68816138b5565b9050919050565b60006020820190508181036000830152613e88816138d8565b9050919050565b60006020820190508181036000830152613ea8816138fb565b9050919050565b60006020820190508181036000830152613ec88161391e565b9050919050565b60006020820190508181036000830152613ee881613941565b9050919050565b60006020820190508181036000830152613f0881613964565b9050919050565b60006020820190508181036000830152613f2881613987565b9050919050565b60006020820190508181036000830152613f48816139aa565b9050919050565b60006020820190508181036000830152613f68816139cd565b9050919050565b60006020820190508181036000830152613f88816139f0565b9050919050565b60006020820190508181036000830152613fa881613a13565b9050919050565b60006020820190508181036000830152613fc881613a36565b9050919050565b6000602082019050613fe46000830184613a68565b92915050565b6000604082019050613fff6000830185613a68565b61400c602083018461367f565b9392505050565b60006040820190506140286000830185613a68565b6140356020830184613a68565b9392505050565b6000614046614057565b90506140528282614363565b919050565b6000604051905090565b600067ffffffffffffffff82111561407c5761407b6144af565b5b614085826144de565b9050602081019050919050565b6000819050602082019050919050565b600081519050919050565b600081519050919050565b600081519050919050565b6000602082019050919050565b600082825260208201905092915050565b600082825260208201905092915050565b600082825260208201905092915050565b600081905092915050565b600061411982614297565b915061412483614297565b9250827fffffffffffffffffffffffffffffffffffffffffffffffffffffffffffffffff0382111561415957614158614422565b5b828201905092915050565b600061416f82614297565b915061417a83614297565b92508261418a57614189614451565b5b828204905092915050565b60006141a082614297565b91506141ab83614297565b9250817fffffffffffffffffffffffffffffffffffffffffffffffffffffffffffffffff04831182151516156141e4576141e3614422565b5b828202905092915050565b60006141fa82614297565b915061420583614297565b92508282101561421857614217614422565b5b828203905092915050565b600061422e82614277565b9050919050565b60008115159050919050565b6000819050919050565b60007fffffffff0000000000000000000000000000000000000000000000000000000082169050919050565b600073ffffffffffffffffffffffffffffffffffffffff82169050919050565b6000819050919050565b60006142ac826142b3565b9050919050565b60006142be82614277565b9050919050565b82818337600083830152505050565b60005b838110156142f25780820151818401526020810190506142d7565b83811115614301576000848401525b50505050565b600061431282614297565b9150600082141561432657614325614422565b5b600182039050919050565b6000600282049050600182168061434957607f821691505b6020821081141561435d5761435c614480565b5b50919050565b61436c826144de565b810181811067ffffffffffffffff8211171561438b5761438a6144af565b5b80604052505050565b600061439f82614297565b91507fffffffffffffffffffffffffffffffffffffffffffffffffffffffffffffffff8214156143d2576143d1614422565b5b600182019050919050565b6000819050919050565b6000819050919050565b60006143fc82614297565b915061440783614297565b92508261441757614416614451565b5b828206905092915050565b7f4e487b7100000000000000000000000000000000000000000000000000000000600052601160045260246000fd5b7f4e487b7100000000000000000000000000000000000000000000000000000000600052601260045260246000fd5b7f4e487b7100000000000000000000000000000000000000000000000000000000600052602260045260246000fd5b7f4e487b7100000000000000000000000000000000000000000000000000000000600052604160045260246000fd5b6000601f19601f8301169050919050565b7f4552433732313a207472616e7366657220746f206e6f6e20455243373231526560008201527f63656976657220696d706c656d656e7465720000000000000000000000000000602082015250565b7f4f776e61626c653a206e6577206f776e657220697320746865207a65726f206160008201527f6464726573730000000000000000000000000000000000000000000000000000602082015250565b7f4552433732313a20746f6b656e20616c7265616479206d696e74656400000000600082015250565b7f596f7520646f206e6f74206f776e20616e79207469636b6574732e0000000000600082015250565b7f4552433732313a207472616e7366657220746f20746865207a65726f2061646460008201527f7265737300000000000000000000000000000000000000000000000000000000602082015250565b7f4552433732313a20617070726f766520746f2063616c6c657200000000000000600082015250565b7f4e6f7420656e6f756768204c494e4b202d2066696c6c20636f6e74726163742060008201527f7769746820666175636574000000000000000000000000000000000000000000602082015250565b7f4552433732313a206f70657261746f7220717565727920666f72206e6f6e657860008201527f697374656e7420746f6b656e0000000000000000000000000000000000000000602082015250565b7f53656e64657220646f6573206e6f74206861766520746865207265717569726560008201527f642062616c616e636520746f2073656e642e0000000000000000000000000000602082015250565b7f4552433732313a20617070726f76652063616c6c6572206973206e6f74206f7760008201527f6e6572206e6f7220617070726f76656420666f7220616c6c0000000000000000602082015250565b7f4552433732313a2062616c616e636520717565727920666f7220746865207a6560008201527f726f206164647265737300000000000000000000000000000000000000000000602082015250565b7f4552433732313a206f776e657220717565727920666f72206e6f6e657869737460008201527f656e7420746f6b656e0000000000000000000000000000000000000000000000602082015250565b7f4c6f7474657279206d757374206578706972652066697273742e000000000000600082015250565b7f4552433732313a206d696e7420746f20746865207a65726f2061646472657373600082015250565b7f4552433732313a20617070726f76656420717565727920666f72206e6f6e657860008201527f697374656e7420746f6b656e0000000000000000000000000000000000000000602082015250565b7f4f776e61626c653a2063616c6c6572206973206e6f7420746865206f776e6572600082015250565b7f4552433732313a207472616e73666572206f6620746f6b656e2074686174206960008201527f73206e6f74206f776e0000000000000000000000000000000000000000000000602082015250565b7f4552433732314d657461646174613a2055524920717565727920666f72206e6f60008201527f6e6578697374656e7420746f6b656e0000000000000000000000000000000000602082015250565b7f4f6e6c7920565246436f6f7264696e61746f722063616e2066756c66696c6c00600082015250565b7f4552433732313a20617070726f76616c20746f2063757272656e74206f776e6560008201527f7200000000000000000000000000000000000000000000000000000000000000602082015250565b7f4552433732313a207472616e736665722063616c6c6572206973206e6f74206f60008201527f776e6572206e6f7220617070726f766564000000000000000000000000000000602082015250565b7f436f6e747261637420646f6573206e6f742068617665207065726d697373696f60008201527f6e20746f207472616e7366657220746f6b656e732e0000000000000000000000602082015250565b614ab881614223565b8114614ac357600080fd5b50565b614acf81614235565b8114614ada57600080fd5b50565b614ae681614241565b8114614af157600080fd5b50565b614afd8161424b565b8114614b0857600080fd5b50565b614b1481614297565b8114614b1f57600080fd5b5056fea2646970667358221220ecf77366aca02c3e0a17ec248eb970fdef5cd69bd2d6ce8864be36ff71c14b0664736f6c63430008040033",
  "immutableReferences": {
    "818": [
      {
        "length": 32,
        "start": 8145
      },
      {
        "length": 32,
        "start": 9833
      }
    ],
    "820": [
      {
        "length": 32,
        "start": 4928
      },
      {
        "length": 32,
        "start": 9893
      }
    ]
  },
  "source": "// SPDX-License-Identifier: MIT\npragma solidity >=0.8.2 <0.9.0;\n\nimport \"@openzeppelin/contracts/token/ERC721/ERC721.sol\";\nimport \"@openzeppelin/contracts/access/Ownable.sol\";\nimport \"@openzeppelin/contracts/utils/math/SafeMath.sol\";\nimport \"@chainlink/contracts/src/v0.8/dev/VRFConsumerBase.sol\";\nimport 'synthetix/contracts/interfaces/IAddressResolver.sol';\nimport 'synthetix/contracts/interfaces/IERC20.sol';\n\n/*\nOptimizations:\n- Removed _transferMoney function\n- Moved pickWinners back into the fulfillRandomness function\n*/\n\ncontract LotteryTicket is ERC721, VRFConsumerBase, Ownable {\n    using SafeMath for uint256;\n\n    // Lottery settings\n    uint256 public constant ticketPrice = 5;\n    uint256 public constant duration = 10 minutes;\n\n    // sUSD token interfaces\n    IAddressResolver public synthetixResolver;\n    address public synthAddress;\n\n    // Ticket NFT\n    uint256 public ticketId;\n\n    // Track id ranges for current and previous lottery\n    uint256 public ticketFloor;\n    uint256 public prevTicketFloor;\n\n    // End date for current lottery\n    uint256 public end;\n\n    // Leftover funds owned by the contract\n    uint256 public contractMoney;\n\n    // Randomness management\n    bytes32 public requestId;\n    bytes32 internal keyHash;\n    uint256 internal fee;\n\n    // Track prizes\n    mapping (uint256 => uint256) public ticketToPrize;\n\n    event LotteryEnded(uint256 ticketFloor, bytes32 requestId);\n\n    /**\n     * Start the lottery process with verified randomness and sUSD transactions.\n     */\n    constructor( address _vrfCoordinator, address _linkToken, address _resolver, bytes32 _keyHash) payable\n    ERC721(\"LotteryTicket\", \"TIX\")\n    VRFConsumerBase(_vrfCoordinator, _linkToken) {\n        // Manage sUSD\n        synthetixResolver = IAddressResolver(_resolver);\n        synthAddress = synthetixResolver.getAddress('ProxyERC20sUSD');\n        require(synthAddress != address(0), 'sUSD is missing from Synthetix resolver');\n\n        // Manage randomness and start lottery\n        keyHash = _keyHash;\n        fee = 0.1 * 10 ** 18;\n        end = block.timestamp + duration;\n    }\n\n    /**\n     * Purchases multiple tickets for the message sender.\n     */\n    function buyTickets(uint256 qty) external payable {\n        // End current lottery\n        if(end < block.timestamp) {\n            endLottery();\n        }\n\n        // Transfer money\n        uint256 amount = ticketPrice*qty;\n        require(checkTokenBalance(msg.sender) >= amount, \"Sender does not have the required balance to send.\");\n        IERC20(synthAddress).approve(address(this), amount);\n        require(checkTokenAllowance(msg.sender, address(this)) >= amount, \"Contract does not have permission to transfer tokens.\");\n        IERC20(synthAddress).transferFrom(msg.sender, address(this), amount);\n\n        // Mint our tickets\n        uint256 t;\n        for(t=0; t<qty; t++) {\n            ticketId++;\n            _safeMint(msg.sender, ticketId);\n        }\n    }\n\n    /**\n     * End a lottery and start selection process.\n     */\n    function endLottery() public {\n        require(end < block.timestamp, \"Lottery must expire first.\");\n\n        // End the Lottery\n        prevTicketFloor = ticketFloor;\n        end = block.timestamp + duration;\n        ticketFloor = ticketId;\n\n        // Request our randomness\n        requestId = getRandomNumber(block.timestamp);\n        emit LotteryEnded(prevTicketFloor, requestId);\n    }\n\n    /**\n     * Requests randomness from a user-provided seed\n     */\n    function getRandomNumber(uint256 userProvidedSeed) internal returns (bytes32 _requestId) {\n        require(LINK.balanceOf(address(this)) >= fee, \"Not enough LINK - fill contract with faucet\");\n        return requestRandomness(keyHash, fee, userProvidedSeed);\n    }\n\n    /**\n     * Processes random response, required by VRFCoordinator.\n     */\n    function fulfillRandomness(bytes32 _requestId, uint256 randomness) internal override {\n        pickWinners(prevTicketFloor,ticketFloor,randomness);\n        requestId = 0;\n    }\n\n    /**\n     * Use random result to pick winners for the previous lottery.\n     */\n    function pickWinners(uint256 ticketStart, uint256 ticketEnd, uint256 randomness) private returns (bool) {\n        uint256 i;\n\n        // Get candidate tickets\n        uint256[] memory tickets = new uint256[](ticketEnd - ticketStart);\n        uint256 resultIndex = 0;\n        for(i=ticketEnd;i>ticketStart;i--) {\n            tickets[resultIndex] = i;\n            resultIndex++;\n        }\n\n        // Calculate prize pool and adjust splits depending on entrants\n        uint256 totalPrize = tickets.length * ticketPrice;\n        uint8[3] memory splits;\n        if(tickets.length == 0) {\n            return true;\n        } else if(tickets.length == 1) {\n            splits = [100, 0, 0];\n        } else if(tickets.length == 2) {\n            splits = [50, 50, 0];\n        } else if(tickets.length >= 3) {\n            splits = [50, 35, 15];\n        }\n\n        // Pick the winners\n        uint256 selection;\n        uint256 totalPaid;\n        for(i=0; i<splits.length; i++) {\n            if(splits[i] > 0) {\n                selection = uint256(keccak256(abi.encode(randomness, i))).mod(tickets.length);\n                ticketToPrize[tickets[selection]] = totalPrize.mul(splits[i]).div(100);\n                totalPaid += ticketToPrize[tickets[selection]];\n\n                // Delete the winner and rearrange the tickets so there's 1 less so a ticket doesn't win twice\n                if(tickets.length > 2 || (tickets.length == 2 && selection != tickets.length.sub(1))) {\n                    delete tickets[selection];\n                    tickets[selection] = tickets[tickets.length.sub(1)];\n                    delete tickets[tickets.length.sub(1)];\n                } else if(tickets.length == 2) {\n                    delete tickets[selection];\n                }\n            }\n        }\n\n        // Save leftovers for ourself, to pay for the LINK\n        if(totalPaid != totalPrize) {\n            contractMoney += (totalPrize.sub(totalPaid));\n        }\n        return true;\n    }\n\n    /**\n     * Claim my prizes\n     */\n    function claimMyPrizes() external {\n        uint256 tokenCount = balanceOf(msg.sender);\n        require(tokenCount>0,\"You do not own any tickets.\");\n        uint256 amount;\n        for (uint256 t = 1; t <= ticketId; t++) {\n            if (ownerOf(t) == msg.sender) {\n                amount += ticketToPrize[t];\n                ticketToPrize[t] = 0;\n            }\n        }\n\n        // Transfer money\n        IERC20(synthAddress).transfer(msg.sender, amount);\n    }\n\n    /**\n     * Get my tickets helper function for front-end usability.\n     */\n    function getMyTickets() view public returns(uint256[] memory) {\n        uint256 tokenCount = balanceOf(msg.sender);\n        if (tokenCount == 0) {\n            return new uint256[](0);\n        } else {\n            uint256[] memory result = new uint256[](tokenCount);\n            uint256 totalTickets = ticketId;\n            uint256 resultIndex = 0;\n            for (uint256 t = 1; t <= totalTickets; t++) {\n                if (ownerOf(t) == msg.sender) {\n                    result[resultIndex] = t;\n                    resultIndex++;\n                }\n            }\n            return result;\n        }\n    }\n\n    /**\n     * Withdraw sUSD so we can convert to LINK and put it back.\n     */\n    function withdrawMoney() external onlyOwner {\n        // Transfer money\n        IERC20(synthAddress).transfer(msg.sender, contractMoney);\n        contractMoney = 0;\n    }\n\n    function checkTokenBalance(address account) public view returns (uint) {\n        return IERC20(synthAddress).balanceOf(account);\n    }\n\n    function checkTokenAllowance(address tokenOwner, address spender) public view returns (uint) {\n        return IERC20(synthAddress).allowance(tokenOwner, spender);\n    }\n\n}\n",
  "sourcePath": "/Users/Shared/Code/experimental/synthetix-lottery/contracts/LotteryTicket.sol",
  "compiler": {
    "name": "solc",
    "version": "0.8.4+commit.c7e474f2.Emscripten.clang"
  },
  "schemaVersion": "3.4.1",
  "updatedAt": "2021-05-15T02:39:26.402Z",
  "networkType": "ethereum",
  "devdoc": {
    "kind": "dev",
    "methods": {
      "approve(address,uint256)": {
        "details": "See {IERC721-approve}."
      },
      "balanceOf(address)": {
        "details": "See {IERC721-balanceOf}."
      },
      "getApproved(uint256)": {
        "details": "See {IERC721-getApproved}."
      },
      "isApprovedForAll(address,address)": {
        "details": "See {IERC721-isApprovedForAll}."
      },
      "name()": {
        "details": "See {IERC721Metadata-name}."
      },
      "owner()": {
        "details": "Returns the address of the current owner."
      },
      "ownerOf(uint256)": {
        "details": "See {IERC721-ownerOf}."
      },
      "renounceOwnership()": {
        "details": "Leaves the contract without owner. It will not be possible to call `onlyOwner` functions anymore. Can only be called by the current owner. NOTE: Renouncing ownership will leave the contract without an owner, thereby removing any functionality that is only available to the owner."
      },
      "safeTransferFrom(address,address,uint256)": {
        "details": "See {IERC721-safeTransferFrom}."
      },
      "safeTransferFrom(address,address,uint256,bytes)": {
        "details": "See {IERC721-safeTransferFrom}."
      },
      "setApprovalForAll(address,bool)": {
        "details": "See {IERC721-setApprovalForAll}."
      },
      "supportsInterface(bytes4)": {
        "details": "See {IERC165-supportsInterface}."
      },
      "symbol()": {
        "details": "See {IERC721Metadata-symbol}."
      },
      "tokenURI(uint256)": {
        "details": "See {IERC721Metadata-tokenURI}."
      },
      "transferFrom(address,address,uint256)": {
        "details": "See {IERC721-transferFrom}."
      },
      "transferOwnership(address)": {
        "details": "Transfers ownership of the contract to a new account (`newOwner`). Can only be called by the current owner."
      }
    },
    "version": 1
  },
  "userdoc": {
    "kind": "user",
    "methods": {
      "buyTickets(uint256)": {
        "notice": "Purchases multiple tickets for the message sender."
      },
      "claimMyPrizes()": {
        "notice": "Claim my prizes"
      },
      "constructor": {
        "notice": "Start the lottery process with verified randomness and sUSD transactions."
      },
      "endLottery()": {
        "notice": "End a lottery and start selection process."
      },
      "getMyTickets()": {
        "notice": "Get my tickets helper function for front-end usability."
      },
      "withdrawMoney()": {
        "notice": "Withdraw sUSD so we can convert to LINK and put it back."
      }
    },
    "version": 1
  }
}