{
  "contractName": "MoveSynthUSD",
  "abi": [
    {
      "inputs": [
        {
          "internalType": "address",
          "name": "_resolver",
          "type": "address"
        }
      ],
      "stateMutability": "payable",
      "type": "constructor"
    },
    {
      "anonymous": false,
      "inputs": [
        {
          "indexed": true,
          "internalType": "bytes32",
          "name": "debugType",
          "type": "bytes32"
        },
        {
          "indexed": true,
          "internalType": "uint256",
          "name": "debugValue",
          "type": "uint256"
        }
      ],
      "name": "DebugEvent",
      "type": "event"
    },
    {
      "anonymous": false,
      "inputs": [
        {
          "indexed": true,
          "internalType": "address",
          "name": "previousOwner",
          "type": "address"
        },
        {
          "indexed": true,
          "internalType": "address",
          "name": "newOwner",
          "type": "address"
        }
      ],
      "name": "OwnershipTransferred",
      "type": "event"
    },
    {
      "inputs": [],
      "name": "owner",
      "outputs": [
        {
          "internalType": "address",
          "name": "",
          "type": "address"
        }
      ],
      "stateMutability": "view",
      "type": "function"
    },
    {
      "inputs": [],
      "name": "renounceOwnership",
      "outputs": [],
      "stateMutability": "nonpayable",
      "type": "function"
    },
    {
      "inputs": [],
      "name": "synthAddress",
      "outputs": [
        {
          "internalType": "address",
          "name": "",
          "type": "address"
        }
      ],
      "stateMutability": "view",
      "type": "function"
    },
    {
      "inputs": [],
      "name": "synthetixResolver",
      "outputs": [
        {
          "internalType": "contract IAddressResolver",
          "name": "",
          "type": "address"
        }
      ],
      "stateMutability": "view",
      "type": "function"
    },
    {
      "inputs": [
        {
          "internalType": "address",
          "name": "newOwner",
          "type": "address"
        }
      ],
      "name": "transferOwnership",
      "outputs": [],
      "stateMutability": "nonpayable",
      "type": "function"
    },
    {
      "inputs": [],
      "name": "sendSomething",
      "outputs": [],
      "stateMutability": "payable",
      "type": "function"
    },
    {
      "inputs": [],
      "name": "withdrawSomething",
      "outputs": [],
      "stateMutability": "nonpayable",
      "type": "function"
    },
    {
      "inputs": [
        {
          "internalType": "address",
          "name": "account",
          "type": "address"
        }
      ],
      "name": "checkBalance",
      "outputs": [
        {
          "internalType": "uint256",
          "name": "",
          "type": "uint256"
        }
      ],
      "stateMutability": "view",
      "type": "function"
    },
    {
      "inputs": [
        {
          "internalType": "address",
          "name": "tokenOwner",
          "type": "address"
        },
        {
          "internalType": "address",
          "name": "spender",
          "type": "address"
        }
      ],
      "name": "checkAllowance",
      "outputs": [
        {
          "internalType": "uint256",
          "name": "",
          "type": "uint256"
        }
      ],
      "stateMutability": "view",
      "type": "function"
    }
  ],
  "bytecode": "0x608060405260405162001409380380620014098339818101604052810190620000299190620002c4565b60006200003b620002a560201b60201c565b9050806000806101000a81548173ffffffffffffffffffffffffffffffffffffffff021916908373ffffffffffffffffffffffffffffffffffffffff1602179055508073ffffffffffffffffffffffffffffffffffffffff16600073ffffffffffffffffffffffffffffffffffffffff167f8be0079c531659141344cd1fd0a4f28419497f9722a3daafe3b4186f6b6457e060405160405180910390a35080600160006101000a81548173ffffffffffffffffffffffffffffffffffffffff021916908373ffffffffffffffffffffffffffffffffffffffff160217905550600160009054906101000a900473ffffffffffffffffffffffffffffffffffffffff1673ffffffffffffffffffffffffffffffffffffffff166321f8a7216040518163ffffffff1660e01b815260040162000175906200033d565b60206040518083038186803b1580156200018e57600080fd5b505afa158015620001a3573d6000803e3d6000fd5b505050506040513d601f19601f82011682018060405250810190620001c99190620002c4565b600260006101000a81548173ffffffffffffffffffffffffffffffffffffffff021916908373ffffffffffffffffffffffffffffffffffffffff160217905550600073ffffffffffffffffffffffffffffffffffffffff16600260009054906101000a900473ffffffffffffffffffffffffffffffffffffffff1673ffffffffffffffffffffffffffffffffffffffff1614156200029e576040517f08c379a0000000000000000000000000000000000000000000000000000000008152600401620002959062000358565b60405180910390fd5b5062000428565b600033905090565b600081519050620002be816200040e565b92915050565b600060208284031215620002d757600080fd5b6000620002e784828501620002ad565b91505092915050565b7f50726f7879455243323073555344000000000000000000000000000000000000815250565b6000620003256027836200037a565b91506200033282620003bf565b604082019050919050565b60006020820190506200035360008301620002f0565b919050565b60006020820190508181036000830152620003738162000316565b9050919050565b600082825260208201905092915050565b600062000398826200039f565b9050919050565b600073ffffffffffffffffffffffffffffffffffffffff82169050919050565b7f73555344206973206d697373696e672066726f6d2053796e746865746978207260008201527f65736f6c76657200000000000000000000000000000000000000000000000000602082015250565b62000419816200038b565b81146200042557600080fd5b50565b610fd180620004386000396000f3fe6080604052600436106100865760003560e01c80638b099b23116100595780638b099b23146101145780638da5cb5b1461015157806398d0286e1461017c578063a8e4b17d14610193578063f2fde38b146101be57610086565b8063153cd7161461008b5780635f515226146100b65780637055a051146100f3578063715018a6146100fd575b600080fd5b34801561009757600080fd5b506100a06101e7565b6040516100ad9190610cb2565b60405180910390f35b3480156100c257600080fd5b506100dd60048036038101906100d89190610a6c565b61020d565b6040516100ea9190610d6d565b60405180910390f35b6100fb6102c1565b005b34801561010957600080fd5b5061011261050b565b005b34801561012057600080fd5b5061013b60048036038101906101369190610a95565b610645565b6040516101489190610d6d565b60405180910390f35b34801561015d57600080fd5b506101666106fc565b6040516101739190610c0e565b60405180910390f35b34801561018857600080fd5b50610191610725565b005b34801561019f57600080fd5b506101a8610856565b6040516101b59190610c0e565b60405180910390f35b3480156101ca57600080fd5b506101e560048036038101906101e09190610a6c565b61087c565b005b600160009054906101000a900473ffffffffffffffffffffffffffffffffffffffff1681565b6000600260009054906101000a900473ffffffffffffffffffffffffffffffffffffffff1673ffffffffffffffffffffffffffffffffffffffff166370a08231836040518263ffffffff1660e01b815260040161026a9190610c0e565b60206040518083038186803b15801561028257600080fd5b505afa158015610296573d6000803e3d6000fd5b505050506040513d601f19601f820116820180604052508101906102ba9190610afa565b9050919050565b60016102cc3361020d565b101561030d576040517f08c379a000000000000000000000000000000000000000000000000000000000815260040161030490610d2d565b60405180910390fd5b6000600260009054906101000a900473ffffffffffffffffffffffffffffffffffffffff1673ffffffffffffffffffffffffffffffffffffffff1663095ea7b33060016040518363ffffffff1660e01b815260040161036d929190610c89565b602060405180830381600087803b15801561038757600080fd5b505af115801561039b573d6000803e3d6000fd5b505050506040513d601f19601f820116820180604052508101906103bf9190610ad1565b90506001151581151514610408576040517f08c379a00000000000000000000000000000000000000000000000000000000081526004016103ff90610ccd565b60405180910390fd5b60016104143330610645565b1015610455576040517f08c379a000000000000000000000000000000000000000000000000000000000815260040161044c90610d4d565b60405180910390fd5b600260009054906101000a900473ffffffffffffffffffffffffffffffffffffffff1673ffffffffffffffffffffffffffffffffffffffff166323b872dd333060016040518463ffffffff1660e01b81526004016104b593929190610c52565b602060405180830381600087803b1580156104cf57600080fd5b505af11580156104e3573d6000803e3d6000fd5b505050506040513d601f19601f820116820180604052508101906105079190610ad1565b5050565b610513610a25565b73ffffffffffffffffffffffffffffffffffffffff166105316106fc565b73ffffffffffffffffffffffffffffffffffffffff1614610587576040517f08c379a000000000000000000000000000000000000000000000000000000000815260040161057e90610d0d565b60405180910390fd5b600073ffffffffffffffffffffffffffffffffffffffff1660008054906101000a900473ffffffffffffffffffffffffffffffffffffffff1673ffffffffffffffffffffffffffffffffffffffff167f8be0079c531659141344cd1fd0a4f28419497f9722a3daafe3b4186f6b6457e060405160405180910390a360008060006101000a81548173ffffffffffffffffffffffffffffffffffffffff021916908373ffffffffffffffffffffffffffffffffffffffff160217905550565b6000600260009054906101000a900473ffffffffffffffffffffffffffffffffffffffff1673ffffffffffffffffffffffffffffffffffffffff1663dd62ed3e84846040518363ffffffff1660e01b81526004016106a4929190610c29565b60206040518083038186803b1580156106bc57600080fd5b505afa1580156106d0573d6000803e3d6000fd5b505050506040513d601f19601f820116820180604052508101906106f49190610afa565b905092915050565b60008060009054906101000a900473ffffffffffffffffffffffffffffffffffffffff16905090565b61072d610a25565b73ffffffffffffffffffffffffffffffffffffffff1661074b6106fc565b73ffffffffffffffffffffffffffffffffffffffff16146107a1576040517f08c379a000000000000000000000000000000000000000000000000000000000815260040161079890610d0d565b60405180910390fd5b600260009054906101000a900473ffffffffffffffffffffffffffffffffffffffff1673ffffffffffffffffffffffffffffffffffffffff166323b872dd303360016040518463ffffffff1660e01b815260040161080193929190610c52565b602060405180830381600087803b15801561081b57600080fd5b505af115801561082f573d6000803e3d6000fd5b505050506040513d601f19601f820116820180604052508101906108539190610ad1565b50565b600260009054906101000a900473ffffffffffffffffffffffffffffffffffffffff1681565b610884610a25565b73ffffffffffffffffffffffffffffffffffffffff166108a26106fc565b73ffffffffffffffffffffffffffffffffffffffff16146108f8576040517f08c379a00000000000000000000000000000000000000000000000000000000081526004016108ef90610d0d565b60405180910390fd5b600073ffffffffffffffffffffffffffffffffffffffff168173ffffffffffffffffffffffffffffffffffffffff161415610968576040517f08c379a000000000000000000000000000000000000000000000000000000000815260040161095f90610ced565b60405180910390fd5b8073ffffffffffffffffffffffffffffffffffffffff1660008054906101000a900473ffffffffffffffffffffffffffffffffffffffff1673ffffffffffffffffffffffffffffffffffffffff167f8be0079c531659141344cd1fd0a4f28419497f9722a3daafe3b4186f6b6457e060405160405180910390a3806000806101000a81548173ffffffffffffffffffffffffffffffffffffffff021916908373ffffffffffffffffffffffffffffffffffffffff16021790555050565b600033905090565b600081359050610a3c81610f56565b92915050565b600081519050610a5181610f6d565b92915050565b600081519050610a6681610f84565b92915050565b600060208284031215610a7e57600080fd5b6000610a8c84828501610a2d565b91505092915050565b60008060408385031215610aa857600080fd5b6000610ab685828601610a2d565b9250506020610ac785828601610a2d565b9150509250929050565b600060208284031215610ae357600080fd5b6000610af184828501610a42565b91505092915050565b600060208284031215610b0c57600080fd5b6000610b1a84828501610a57565b91505092915050565b610b2c81610d99565b82525050565b610b3b81610de1565b82525050565b610b4a81610e05565b82525050565b6000610b5d601883610d88565b9150610b6882610e17565b602082019050919050565b6000610b80602683610d88565b9150610b8b82610e40565b604082019050919050565b6000610ba3602083610d88565b9150610bae82610e8f565b602082019050919050565b6000610bc6603783610d88565b9150610bd182610eb8565b604082019050919050565b6000610be9603e83610d88565b9150610bf482610f07565b604082019050919050565b610c0881610dd7565b82525050565b6000602082019050610c236000830184610b23565b92915050565b6000604082019050610c3e6000830185610b23565b610c4b6020830184610b23565b9392505050565b6000606082019050610c676000830186610b23565b610c746020830185610b23565b610c816040830184610b41565b949350505050565b6000604082019050610c9e6000830185610b23565b610cab6020830184610b41565b9392505050565b6000602082019050610cc76000830184610b32565b92915050565b60006020820190508181036000830152610ce681610b50565b9050919050565b60006020820190508181036000830152610d0681610b73565b9050919050565b60006020820190508181036000830152610d2681610b96565b9050919050565b60006020820190508181036000830152610d4681610bb9565b9050919050565b60006020820190508181036000830152610d6681610bdc565b9050919050565b6000602082019050610d826000830184610bff565b92915050565b600082825260208201905092915050565b6000610da482610db7565b9050919050565b60008115159050919050565b600073ffffffffffffffffffffffffffffffffffffffff82169050919050565b6000819050919050565b6000610dec82610df3565b9050919050565b6000610dfe82610db7565b9050919050565b6000610e1082610dd7565b9050919050565b7f417070726f76616c20776173206e6f74206772616e7465640000000000000000600082015250565b7f4f776e61626c653a206e6577206f776e657220697320746865207a65726f206160008201527f6464726573730000000000000000000000000000000000000000000000000000602082015250565b7f4f776e61626c653a2063616c6c6572206973206e6f7420746865206f776e6572600082015250565b7f66726f6d4163636f756e7420646f6573206e6f7420686176652074686520726560008201527f7175697265642062616c616e636520746f207370656e64000000000000000000602082015250565b7f49204d6f766553796e74685553442c20646f206e6f742068617665206170707260008201527f6f76616c20746f207370656e642074686973206775797320746f6b656e730000602082015250565b610f5f81610d99565b8114610f6a57600080fd5b50565b610f7681610dab565b8114610f8157600080fd5b50565b610f8d81610dd7565b8114610f9857600080fd5b5056fea2646970667358221220652dfb62fc4bf9b7632aac5735d134edce8d99c393d0f5faf0d7579e9e30203e64736f6c63430008040033",
  "immutableReferences": {},
  "source": "// SPDX-License-Identifier: MIT\npragma solidity >=0.8.2 <0.9.0;\n\nimport \"@openzeppelin/contracts/access/Ownable.sol\";\nimport 'synthetix/contracts/interfaces/IAddressResolver.sol';\nimport 'synthetix/contracts/interfaces/IERC20.sol';\n\ncontract MoveSynthUSD is Ownable {\n\n    IAddressResolver public synthetixResolver;\n    address public synthAddress;\n\n    event DebugEvent(bytes32 indexed debugType, uint256 indexed debugValue);\n\n    constructor( address _resolver) payable {\n        synthetixResolver = IAddressResolver(_resolver);\n        synthAddress = synthetixResolver.getAddress('ProxyERC20sUSD');\n        require(synthAddress != address(0), 'sUSD is missing from Synthetix resolver');\n    }\n\n    function sendSomething() external payable {\n        // Call Immutable static call #1\n        require(checkBalance(msg.sender) >= 1, \"fromAccount does not have the required balance to spend\");\n\n        bool approvalResponse = IERC20(synthAddress).approve(address(this), 1);\n        require(approvalResponse == true, \"Approval was not granted\");\n\n        // Call Immutable static call #2\n        require(\n            checkAllowance(msg.sender, address(this)) >= 1,\n            \"I MoveSynthUSD, do not have approval to spend this guys tokens\"\n        );\n\n        // Call Mutable call\n        IERC20(synthAddress).transferFrom(msg.sender, address(this), 1);\n    }\n\n    function withdrawSomething() external onlyOwner {\n        IERC20(synthAddress).transferFrom(address(this), msg.sender, 1);\n    }\n\n    function checkBalance(address account) public view returns (uint) {\n        return IERC20(synthAddress).balanceOf(account);\n    }\n\n    function checkAllowance(address tokenOwner, address spender) public view returns (uint) {\n        return IERC20(synthAddress).allowance(tokenOwner, spender);\n    }\n\n}\n",
  "sourcePath": "/Users/Shared/Code/experimental/synthetix-lottery/contracts/MoveSynthUSD.sol",
  "compiler": {
    "name": "solc",
    "version": "0.8.4+commit.c7e474f2.Emscripten.clang"
  },
  "schemaVersion": "3.4.1",
  "updatedAt": "2021-05-14T17:37:33.598Z",
  "devdoc": {
    "kind": "dev",
    "methods": {
      "owner()": {
        "details": "Returns the address of the current owner."
      },
      "renounceOwnership()": {
        "details": "Leaves the contract without owner. It will not be possible to call `onlyOwner` functions anymore. Can only be called by the current owner. NOTE: Renouncing ownership will leave the contract without an owner, thereby removing any functionality that is only available to the owner."
      },
      "transferOwnership(address)": {
        "details": "Transfers ownership of the contract to a new account (`newOwner`). Can only be called by the current owner."
      }
    },
    "version": 1
  },
  "userdoc": {
    "kind": "user",
    "methods": {},
    "version": 1
  }
}